:020000040800F2
:1000000018070020B102000851200008111E000846
:100010004D2000088D0D0008592200080000000046
:10002000000000000000000000000000592000084F
:10003000910D000800000000552000085D20000818
:10004000CB020008CB020008CB020008CB0200085C
:10005000CB020008CB020008CB020008CB0200084C
:10006000CB020008CB020008CB020008CB0200083C
:10007000CB020008CB020008CB020008CB0200082C
:10008000CB020008CB020008CB020008CB0200081C
:10009000CB020008CB020008CB020008CB0200080C
:1000A000CB020008CB020008CB020008CB020008FC
:1000B000CB020008CB020008CB020008CB020008EC
:1000C000CB020008CB020008CB020008CB020008DC
:1000D000CB020008CB020008CB020008CB020008CC
:1000E000950D0008CB020008CB020008CB020008E7
:1000F000CB020008CB020008CB020008CB020008AC
:10010000CB020008CB020008CB020008CB0200089B
:10011000CB020008CB020008CB020008CB0200088B
:10012000CB020008CB020008CB020008CB0200087B
:10013000CB0200080000000000000000CB02000815
:10014000CB020008CB020008CB020008CB0200085B
:10015000CB020008CB020008CB020008CB0200084B
:10016000CB020008CB020008CB020008CB0200083B
:10017000CB020008CB020008CB0200080000000000
:1001800000000000CB02000800000000000000009A
:10019000CB0200080000000000000000CB020008B5
:1001A000000000000000000000000000CB0200087A
:1001B000CB020008CB020008CB020008CB020008EB
:1001C000CB02000800F002F800F062F814A696E8EE
:1001D000000CB244B344DA4501D100F059F8BAE852
:1001E0000F000FA696E83000A5EB040504EB060708
:1001F000AAEB0704A7F101074FEA15154FEA3414DB
:10020000A4F10104AC4201D300F042F813F0010F55
:1002100018BFFB1A43F0010300F001F8DBE71847B1
:100220002443000044430000103A24BF78C878C13A
:10023000FAD8520724BF30C830C144BF04680C60EC
:1002400070470000704700000023002400250026AE
:10025000103A28BF78C1FBD8520728BF30C148BF29
:100260000B607047662904F07E80642900F00081ED
:10027000002070471FB504F064F800F00FFC040084
:100280000020002103F058FAE0601FBD10B510BD3A
:1002900000F008FD1146FFF7EDFF01F0E1FF00F06F
:1002A00026FD03B4FFF7F2FF03BC00F067FD00007A
:1002B0000948804709480047FEE7FEE7FEE7FEE7FA
:1002C000FEE7FEE7FEE7FEE7FEE7FEE70448054936
:1002D000054A064B7047000011210008C5010008BF
:1002E0001801002018070020180300201803002020
:1002F00053EA020C00F069802DE9F04B4FF0000644
:10030000002B1FBFB3FA83F503FA05F424FA05F6B0
:100310005E4012BF1643B2FA82F502FA05F4C5F147
:1003200020051EBF22FA05FC44EA0C04203556EADB
:10033000044C4FEA144418BF641C4FF000084FF0FF
:100340000009904271EB030C39D3002919BFB1FAAF
:1003500081F701FA07F6B0FA80F700FA07F6C7F15D
:1003600020071EBF20FA07FC46EA0C062037B6FB22
:10037000F4FCA7EB0507103F07F01F0BCBF120069D
:100380002CFA06F60CFA0BFB44BFB3460026202FCE
:10039000A4BF5E464FF0000B5BEA060C08BF4FF0AF
:1003A000010B19EB0B0948EB0608ABFB027C06FBC3
:1003B00002CC0BFB03CCC01B71EB0C01C1E70B465D
:1003C000024641464846BDE8F08B13B5084318BFC6
:1003D0004FF0FF300146AFF30080BDE81C4070478E
:1003E0000FB41CB5074B06AA7B44694600900598DC
:1003F00000F03BFB0020694600F04AFB1CBC5DF8A6
:1004000014FB0000A50600002DE9F0410E4604464D
:10041000002020622046E168884730B3252805D0B7
:10042000D4E901219047206A401CF2E7E1682046A8
:1004300000278847050018D0A5F14100192802D8E7
:1004400020354FF400673246294620462760FFF7E3
:1004500009FF40B1012804D0F61D26F00706083632
:10046000D8E7361DD6E72846DAE7206ABDE8F081EE
:100470002DE9F0410646002410687529314616A57D
:1004800010D0AFF30080002802DA404213A507E045
:1004900031688A0701D512A502E0490704D511A5E4
:1004A000012401E0AFF3008000210A2206F12407B5
:1004B00009E0B0FBF2FCB0FBF2F302FB1C003030B1
:1004C00078541846491C0028F3D123462A46304662
:1004D000BDE8F04100F05CB8000000002D00000015
:1004E0002B0000002000000010B5431C02E010F8B3
:1004F000011B71B18107FAD14FF0013202C88C1A89
:100500008C4314EAC211F9D0C01A0A0603D0C01EE7
:1005100010BDC01A10BD0A0401D0801E10BD090212
:10052000FCD0401E10BD4FF0000200B513469446AB
:100530009646203922BFA0E80C50A0E80C50B1F13B
:100540002001BFF4F7AF090728BFA0E80C5048BF4F
:100550000CC05DF804EB890028BF40F8042B08BFED
:10056000704748BF20F8022B11F0804F18BF00F8E9
:10057000012B704770477047704710B500F092FA32
:10058000006810BD10B5044600F08CFA046010BD80
:100590002DE9F0470D4699469246044600F124089D
:1005A0000168880604D5E06921F01001216000E0AF
:1005B0000120A84201DD471B00E00027A1697A194C
:1005C00002EB0900081AA0612078C00602D4204678
:1005D000AFF30080002608E0D4E901211AF80600F4
:1005E0009047206A401C761C20624E45F4DB207840
:1005F000C0060AD52046AFF3008006E0D4E9012109
:1006000030209047206A401C2062381EA7F1010765
:10061000F4DC07E0D4E9012118F805009047206ACE
:10062000401C2062281EA5F10105F3DC2046AFF333
:1006300000802078000602D50220BDE8F087012066
:10064000FBE72DE9FF4F0C461E464FF0FF378BB0FE
:10065000D2E90001DDF860800A908A46C1F30A55AC
:1006600005B93D46002108464FF00000BAF1000FE1
:1006700000F4400005DA00EB80004FF4400101EA8D
:1006800050004FEA9059B9F1010F00DDB9460A98C0
:1006900050EA4A000ED044F61050A5F2FF3545430B
:1006A0002F14B8F1000F1ED07542291E1EDDC9F1AE
:1006B00000021CE0B8F1010F4FF0000001D0302122
:1006C00003E0F24305E02154401CB042FBDB30461E
:1006D0000022002121540B99C1F80880C1E90020B3
:1006E0000FB0BDE8F08FBD1B6D1CDEE74A4600DA97
:1006F000694206A800F060FA06AB93E8070003AB76
:1007000083E8070050460A9901F0B0FF8DE8070022
:10071000A0F500501F3800900398002D0ADD42F22A
:100720001F014A460844002303A90390684602F0CB
:1007300019FA09E0A0F500504A461F38002303A922
:100740000390684602F023FA8DE807000004000CCD
:1007500003D04FF0FF30410800E01046B8F1000F21
:1007600003D00022009215461EE0751E05D400F04D
:100770009DF9303262556D1EF9D5B346012208430A
:1007800002D000227F1C04E02078302801D1002212
:100790007F1E002A099784D01DE0112D07DA00F092
:1007A00085F9303262556D1C50EA0102F5D10843DB
:1007B00002D00098C8B10EE00021681E05E0235C5D
:1007C000625C63542254401E491C8142F7DBAB46F5
:1007D000A81B401E0990002004F80B000B98099AF2
:1007E000C0F80880C0E9002B7AE711264FF0000816
:1007F00057E72DE9F04F88460446D21D22F0070145
:1008000091B0D1E90001CDE90A0102F0F7FA024600
:100810000B98C00F01D02D2007E02068810701D57B
:100820002B2002E0202101EAC000032A099001D018
:10083000072A05DB03464146204600F07DF90BE11F
:100840002078800601D5E06900E00620B8F1650F48
:10085000814606D0B8F1660F18D0B8F1670F70D195
:1008600031E00020B9F1110F009001DB112301E00C
:1008700009F101030AAA01A90CA8FFF7E2FEDDE9CC
:100880000C70002609F10105834647E001204B4624
:1008900000904FF000470AAA01A90CA8FFF7D1FE6B
:1008A000DDE90DB00C995D46002610B909F1010093
:1008B0000D18B9EB050003D4C0F1FF3609F10105AD
:1008C000A5EB09002BE0B9F1010F01DA4FF00109A6
:1008D0000020B9F1110F0090484601DD112300E01E
:1008E00003460AAA01A90CA8FFF7ABFEDDE90C70CC
:1008F0004D4600268346207800070AD4AB4500DA2F
:100900005D4601A8012D04DD411911F8011C3029B3
:1009100007D04F4502DA17F1040F04DA01208246AE
:100920000FE06D1EEEE7002F02DCED1B3E4403E0FE
:10093000781CA84200DD7D1CB81B00F1010A4FF0B5
:1009400000472078000703D4AA4501DB4FF0FF3AA7
:100950000021B7F1004F0DF143088DF8431024D06A
:1009600002202B23002F01DA7F422D230A21021EB1
:10097000A0F1010000DC5FB197FBF1FC97FBF1F205
:1009800001FB1C7C17460CF1300C08F801CDEEE79A
:10099000A8F1010003702188090501D5452100E077
:1009A0006521A0F1010800F8011C09980FA9A1EB2D
:1009B0000807FF1D00B10120411901EBEA70A16990
:1009C0003844081A401EA0612078C00602D4204690
:1009D000AFF30080099828B1D4E901219047206A3B
:1009E000401C20622078C00622D52046AFF300804C
:1009F0001EE0002E04DBB34502DD01A8805D00E0AF
:100A00003020D4E901219047206A401C2062761CE6
:100A1000AAF101005FEA000A0AD100F03FF8C068BD
:100A20000168405CD4E901219047206A401C2062A3
:100A3000281EA5F10105DCDC07E0D4E9012118F846
:100A4000010B9047206A401C2062381EA7F1010765
:100A5000F3DC2046AFF30080032011B041E6000034
:100A600001694A1C02610878704700B58FB0CDE972
:100A700001310021059105497944CDE90310114662
:100A80006846FFF7C1FC0FB000BD0000E5FFFFFFA7
:100A90000A6802F8010B0A607047000000487047BE
:100AA00030000020004870471000002030B5B0F141
:100AB0000A0271F100034FEA900E4EEA817EB0EB1C
:100AC0000E0061EB91014FEA101E4EEA017E10EB21
:100AD0000E0041EB11114FEA102E4EEA016E10EBA1
:100AE0000E0041EB11214FEA104E4EEA014E10EB81
:100AF0000E0041EB1141401841F100014FEAD000D6
:100B000040EA41704FEAD1014FEA810444EA90740F
:100B100010EB800544EB01046D1944EB0404521BF7
:100B2000A3414FF0000348BF0A3200D530BD401C3E
:100B300041F1000130BD00002DE9F0411F4604469F
:100B400003260168072A01F4006004DB08B116A53A
:100B500005E016A503E008B115A500E015A521F0F4
:100B600010002060A069C01EA0610FB1401EA061EE
:100B70002046AFF300804FB1D4E9012138469047B9
:100B8000206A401C2062C01C206206E0206AFAE74E
:100B9000D4E9012115F8010B9047761EF8D22046C2
:100BA000AFF30080BDE8F0814E414E006E616E00F3
:100BB000494E4600696E66002DE9F04781461646AB
:100BC0008AB0354878440DC88DE80D003248784425
:100BD000801C03AC0DC884E80D0041F69B3008442E
:100BE000372190FBF1F290FBF1F5A5F1800501FBB7
:100BF00012041B3C02D56442012000E00020DFF813
:100C000098A080460027FA44AAF1BE0A0EE0E00749
:100C10000AD03246684607EB470101230AEB8101FF
:100C200001F0B5FF8DE8070064107F1C002CEED1A9
:100C3000194F7F44AE3F19E0E80715D007EB0410C9
:100C40000DF1180A90E80E008AE80E00C068F04224
:100C500001D1981908903246012306A903A801F092
:100C600096FF03AB83E807006D10641C002DE3D1F1
:100C70004FF0010332466946B8F1000F03A802D0D5
:100C800001F070FF01E001F082FFC9E90001C9F83D
:100C900008200AB0BDE8F0874C39000000487047D2
:100CA000100000207546FFF7F9FFAE4605006946C3
:100CB000534620F00700854618B020B5FFF706FB25
:100CC000BDE820404FF000064FF000074FF000084D
:100CD0004FF0000BAC46ACE8C009ACE8C009ACE88A
:100CE000C009ACE8C00921F007018D46704710B576
:100CF0000446AFF300802046BDE81040FFF7D1BAAC
:100D000030B44FF0013C50F8042B51F8043BCCFABE
:100D100052F4D51A20D1FCB950F8042B51F8043BF9
:100D2000CCFA52F4D51A17D1B4B950F8042B51F8B3
:100D3000043BCCFA52F4D51A0ED16CB950F8042BFE
:100D400051F8043BCCFA52F4D51A05D1002CDAD074
:100D500030BC4FF00000704729BAB1FA81F111F0B0
:100D60001801D1F120008440F2D1CA40CB4012F0EA
:100D7000FF0213F0FF0330BCD01A7047014918205E
:100D8000ABBEFEE72600020070470000FEE7000051
:100D9000704700004FF4005000F0CCB84379012BAD
:100DA0004FF0020320D010B50371036802F0100E5B
:100DB000D3F800C0D1E9001440F6FE7202FA0EF238
:100DC00021432CEA020201FA0EF111431960C021FD
:100DD0001A6801FA0EF122EA0101196001210023CB
:100DE00001714371BDE8104018467047002804BFE8
:100DF00001207047017941B910B5002141710446C5
:100E000000F00CF82046BDE81040022101710021DD
:100E100001220161027108467047000080B586B06A
:100E200047F200410068C4F20001002288420592A6
:100E3000CDE903220292019202D006B080BD00BF2C
:100E400043F630000092C4F20200036943F00053FD
:100E50000361036903F000530093009B0092036851
:100E600043F001030360006800F001000090009867
:100E7000102001900320CDE9020201F5C63001A93E
:100E800000F064F806B080BD81B04FF0000CCDF8E2
:100E900000C00068002900900098104414BF14306E
:100EA00008300090009900200B6001B070470000EE
:100EB0004279012A4FF0020224D010B50271026873
:100EC00001F0100C4FF0010E14680EFA0CF32343DE
:100ED0001360136841B103F470113C2303FA0CF35F
:100EE000994209D1022104E003F03C013C2903D1DD
:100EF000012153681943516001210022017142719F
:100F0000BDE8104010467047B0B5044600F0F4F854
:100F1000054640F20000C2F200000078611C18BFD4
:100F2000044400BF00F0E8F8401BA042FAD3B0BD73
:100F30007047000043F61441C4F201010A680242FE
:100F400014BF08607047FFF7F3BF00002DE9F04FB2
:100F500083B000F1200200F13E4741F60005009207
:100F600007F1FF77C4F2020507224FEAB726A8422D
:100F700008BF062200254FF000084FF00009062E9A
:100F800038BF4FEAB72201920AE000BF09F1010918
:100F900008F10208B9F1100F05F1040500F0A28074
:100FA0000F68012202FA09FE17EA0E0AEED0D1F804
:100FB00004C003220CF003077E1E02FA08F4012E7F
:100FC0006FEA040B12D88468CE6804EA0B0406FAB0
:100FD00008F634438460446824EA0E06CCF3001417
:100FE00004FA09F42643466004E000BF032F01D150
:100FF00003271EE0C6688C6806EA0B0604FA08F4AC
:101000002643022FC66014D16FF00302009E02EA4D
:10101000590756F807C005F01C040F220B69A240BF
:101020002CEA0202A3401A43F251D1F804C00CF09A
:101030000307026807FA08F302EA0B021A431CF4DA
:10104000403F0260A2D0002243F644030292C4F261
:1010500002031A6843F6004442F480421A601A6898
:10106000C4F2010402F480420292029A29F00302BF
:101070004FF6084C2244CFF6FF7C52F80C3005F0B6
:101080000C070F26BE40B343019E06FA07F73B4309
:1010900042F80C30A2684B6842EA0A0743F60C4C4F
:1010A000DE0258BF22EA0A07A760C4F2010CDCF88E
:1010B00000209E0242EA0A0758BF22EA0A07CCF83B
:1010C000007062689E0342EA0A0758BF22EA0A07D4
:1010D00067602268DB0342EA0A0758BF22EA0A0770
:1010E000276053E703B0BDE8F08F0000002A08BF77
:1010F000090481617047000040F21010C2F2000044
:101100000068704740F2000040F21011C2F2000087
:10111000C2F2000100780A681044086070470000BD
:1011200080B543F60040C4F20200016841F400714A
:101130000160016841F480610160016841F48071DF
:101140000160032000F086F8002000F005F800F0B0
:1011500027F8002080BD000070B540F20006C2F202
:10116000000640F208013278C2F200014FF47A73AF
:101170000968B3FBF2F20446B1FBF2F1084600F055
:1011800093FB0F2C4FF0010508D838B94FF0FF3012
:1011900021460022002500F031F87460284670BD19
:1011A00082B0002043F640010190C4F202014A6877
:1011B00042F480424A604A6802F480420192019AF5
:1011C0000090086840F080500860086800F0805087
:1011D0000090009802B07047002848BF704700F0A8
:1011E0001F01012202FA01F11C2202EAD0004EF294
:1011F0000012CEF2000281507047000010B54EF68A
:101200000C5CCEF2000CDCF80030C3F3022E8EF042
:101210000704042C28BF0424BEF103034FF0FF3E53
:101220000EFA04F438BF0023A14399400EFA03F3E9
:101230009A43114300F00F0200F160430901043AA0
:1012400003F564436244002848BF02F10C0319709F
:1012500010BD00004EF60C51CEF200010A684FF6A8
:10126000FF031A4060F30A2242F0806040F0FD70F4
:1012700008607047002804BF012070472DE9F04145
:1012800043F60808C4F202080446D8F8F8030D46ED
:1012900000F00F00884207D288F8F853D8F8F80316
:1012A00000F00F00A84277D12068810717D54107C9
:1012B00005D5D8F8001041F4E051C8F80010010736
:1012C00005D5D8F8001041F46041C8F80010D8F8EE
:1012D0000010A26821F0F0011143C8F80010C00707
:1012E00040D1D8F8F80300F00F00A84207D988F8D9
:1012F000F853D8F8F80300F00F00A8424CD120684A
:10130000410707D5D8F80010E26821F4E0511143F5
:10131000C8F80010000708D5D8F80000216920F4AB
:10132000604040EAC100C8F8000000F07DF8D8F83D
:10133000001044F22C52C1F30311C0F60002515CBC
:1013400040F2080220FA01F140F20400C2F200006B
:101350000068C2F200021160FFF7FEFE0020BDE847
:10136000F08100BF6068811E022907D258F8081C6E
:1013700089015CBF0120BDE8F08111E0012807D19F
:1013800058F8081C89035CBF0120BDE8F08107E024
:1013900058F8081C890703D40120BDE8F08100BF7C
:1013A000D8F8001021F003010843C8F80000FFF747
:1013B000A3FE064641F28837D8F80000616800F0C5
:1013C0000C00B0EB810F8CD0FFF796FE801BB8426B
:1013D000F2D90320BDE8F08140F2080043F608018D
:1013E000C2F20000C4F202010068096844F23C52F3
:1013F000C1F38221C0F60002515CC8407047000072
:1014000040F2080043F60801C2F20000C4F20201F3
:101410000068096844F23C52C1F34231C0F6000250
:10142000515CC8407047000010B543F60404C4F294
:1014300002046068C0F3810142F20040C0F2F4008F
:10144000DFE801F04202081841F20020C0F27A0001
:1014500010BD00BF216801F03F02216823684902E6
:10146000C3F3881116D4A1FB00010023FEF740FF4F
:1014700017E000BF216801F03F022168236849029C
:10148000C3F3881114D4A1FB00010023FEF730FF41
:1014900015E000BF41F20020C0F27A004843B0FBE3
:1014A000F2F021680222C1F3014102EB410109E09F
:1014B00041F20020C0F27A004843B0FBF2F021680C
:1014C000C1F30271B0FBF1F010BD0000002804BFB1
:1014D000012070472DE9F04182B00446007843F6C0
:1014E0000006C007C4F202060CD0B06800F00C0081
:1014F000042840F089803068800303D560680028A4
:1015000000F050812078800723D5B06810F00C0FD0
:1015100011D0B06800F00C00082802D170684002B9
:1015200009D5B06800F00C000C2840F09F8070686E
:10153000400200F19B803068800703D5E0680128F5
:1015400040F030813068216920F0F80040EAC100A5
:1015500030602078000713D4207840072AD4A5698A
:10156000002D00F01A81B06800F00C00082840F04F
:10157000AB80012D40F0E880012002B0BDE8F08191
:101580006069002840F20000C4F2472000F0888023
:101590000121C0F8801EFFF7AFFD0546706F800780
:1015A000DAD4FFF7A9FD401B0228F7D9032002B0C7
:1015B000BDE8F081306C5FEAC0080AD400200190D9
:1015C000306C40F080503064306C00F080500190FE
:1015D000019847F20007C4F200073868C00537D405
:1015E000386840F480703860FFF786FD054600BF1C
:1015F0003868C0052CD4FFF77FFD401B0228F7D9BF
:10160000032002B0BDE8F081B06800F00C000828AB
:1016100003D1706840023FF56EAFB06800F00C0077
:101620000C2803D1706840023FF565AF61683068EF
:10163000B1F5803F07D0B1F5A02F40F0CB8040F44A
:1016400080203060306840F480303060CBE000BFF4
:10165000A168306F012905D0052957D140F0040059
:101660003067306F40F00100306759E0E0680028D3
:1016700000F09C800020C4F2472001210160FFF7A8
:101680003BFD0546306880073FF55CAFFFF734FD52
:10169000401B02284FF00300F4D902B0BDE8F081EE
:1016A0000021C0F8801EFFF727FD0546706F8007F8
:1016B0007FF552AFFFF720FD401B0228F6D903202B
:1016C00002B0BDE8F08100BF0027C4F24727002028
:1016D0003866FFF711FD022D05460BD130688001F9
:1016E00040F19280FFF708FD401B02284FF00300F5
:1016F000F4D9D2E7306880014FD5FFF7FDFC401BDD
:1017000002284FF00300F5D9C7E700BF20F0010021
:101710003067306F002920F00400306700F09880B7
:10172000FFF7EAFC054641F2883700BF306F8007BB
:1017300000F1A080FFF7E0FC401BB842F6D903207F
:1017400002B0BDE8F08100BF7068E16900F480027A
:101750008A4227D1216A00F03F028A4222D147F60D
:10176000C071626A0140B1EB821F1BD1A16A4FF6C2
:10177000FF73C903994300F44032A1F580318A42D6
:1017800010D1E16A00F07062B2EB016F0AD1216BF7
:1017900000F0E040B0EB017F04D1002002B0BDE8D2
:1017A000F08100BF012002B0BDE8F0810020C4F24A
:1017B000472000210160FFF79FFC05463068800745
:1017C0007FF5C7AEFFF798FC401B02284FF00300DF
:1017D000F4D962E720F4803030603068002920F4CA
:1017E0008020306050D0FFF787FC054630688003CA
:1017F0003FF588AEFFF780FC401B6428F6D9032034
:1018000002B0BDE8F08100BF04F11C052FCD246BB0
:10181000084340EA8210D9034FF6FF729143A1F5C5
:10182000803140EA0560084340EA0470706001209E
:101830003866FFF761FC044630688001ADD4FFF7DD
:101840005BFC001B02284FF00300F5D925E700BF21
:10185000FFF752FC054641F2883700BF306F800722
:1018600008D5FFF749FC401BB8424FF00300F5D9FB
:1018700013E700BFB8F1000F3FF571AE306C20F0F8
:10188000805030646BE600BFFFF736FC054600BFB2
:10189000306880037FF536AEFFF72EFC401B6428CE
:1018A0004FF00300F4D9F8E6411E0020B0EB116FB1
:1018B0001CBF012070474EF21002CEF200025160B0
:1018C0004EF62351CEF20001F0230B7007219060F9
:1018D0001160704790F83C20012A4FF0020254D06A
:1018E00010B580F83D200268D2F804E0D2F808C0B4
:1018F0000C682EF07003234341F2FF74C4F200041D
:10190000A24253600EDC40F2FF73C4F200039A421D
:1019100016DCB2F1804F2BD040F20043C4F200033A
:1019200024E000BF40F2FF33C4F201039A4213DC0B
:1019300041F60003C4F200039A4219D0002313E0D9
:1019400040F60003C4F200039A4211D040F600436F
:10195000C4F200030AE000BF44F20003C4F2010332
:101960009A4205D040F20043C4F201039A4204D1E6
:1019700049682CF08003194391600121002280F80E
:101980003D1080F83C20BDE8104010467047000034
:10199000002804BF0120704710B5044690F83D00B0
:1019A00028B9002084F83C00204600F01FF80220EF
:1019B00084F83D002068211D00F0B4FB012084F86C
:1019C000460084F83E0084F83F0084F8400084F824
:1019D000410084F8420084F8430084F8440084F80D
:1019E000450084F83D00002010BD0000006841F271
:1019F0000001C4F20001884218BF704781B0002086
:101A0000009043F64000C4F20200016841F010016A
:101A10000160006800F010000090009801B070476D
:101A200090F83D1001291CBF01207047022180F869
:101A30003D10006841F2FF71C4F2000188420DDCE4
:101A400040F2FF71C4F20001884215DCB0F1804F12
:101A50002AD040F20041C4F2000123E040F2FF31FD
:101A6000C4F20101884213DC41F60001C4F2000116
:101A7000884219D0002113E040F60001C4F20001B1
:101A8000884211D040F60041C4F200010AE000BFD4
:101A900044F20001C4F20101884205D040F2004145
:101AA000C4F20101884206D1816801F007010629CC
:101AB00004BF00207047016841F00101016000206F
:101AC00070470000002804BF0120704770B504462D
:101AD00090F83D0028B9002084F83C00204600F032
:101AE0006FF8022084F83D002068D4E902C2D4F8DF
:101AF00010E0C56804F1180625F00C05C5600569FD
:101B00004ACE25F47C55294319433143114341F40E
:101B100000610161C16849F20C629143626941EA66
:101B20000C0141EA0E01114341F40041C1604169D9
:101B300041F2004340F48062C4F2010321F4407199
:101B40009A42416102D1FFF75BFC01E0FFF744FCE0
:101B5000D4E900531921A0FB01015A00DB0FFEF765
:101B6000C7FB48F21F51C5F2EB11A0FB01235A0934
:101B70004FF69C73C1F6FF7302FB0300322303EBA5
:101B8000C000A0FB01014FF4F87000EA111000EB57
:101B90000210C1F342110844A8602869012120F411
:101BA00080402861686920F02A006861E86840F494
:101BB0000050E8600020206484F83D1070BD0000F3
:101BC0002DE9F04387B044F600050068C4F2000533
:101BD0000026A8420696CDE904660396029603D035
:101BE00007B0BDE8F08300BF43F630000196C4F2B1
:101BF0000200016902AC41F48021016101694FF0EA
:101C0000020801F4802101910199019601684FF0C9
:101C1000030941F0020101600168072701F0020198
:101C2000019101990196016841F008010160006885
:101C3000214600F00800019001984FF48050029076
:101C400005F5DE30CDE90386CDF814900697FFF751
:101C50007DF94FF44070CDE9020805F5E2302146E8
:101C6000CDE904690697FFF771F907B0BDE8F08385
:101C70002DE9F04381B0044690F83D0001280DD1D4
:101C800000294FF0010018BF002A03D101B0BDE8C0
:101C9000F08300BF94F83C00012803D1022001B07A
:101CA000BDE8F083012084F83C000020206412206D
:101CB0001D460E4684F83D001746FFF71DFA27859E
:101CC0006785A1688146B1F5805F02D1206900284F
:101CD0005CD037460020628D2168002A5CD06A1CE7
:101CE00023D0002D46D080460868000608D4FFF7B0
:101CF00003FAA0EB09002168A842F5D96CE000BF07
:101D000017B117F8010B04E038F8020B00276FF346
:101D10005F204860608D01386085608D0028E3D1C8
:101D20003AE000BF0A68120609D40A68120606D40F
:101D30000A6812065CBF0A685FEA0262F2D51FB148
:101D400017F8012B05E000BF30F8022B00276FF3D6
:101D50005F224A60628D013A6285628D002AE4D179
:101D60001AE000BF17F8012B4A60628D013A6285C4
:101D7000628D8AB10A6812062ED5002FF2D130F892
:101D8000022B00276FF35F22EEE700BF00273046EB
:101D9000628D2168002AA2D1086840062ED4DDB1E8
:101DA000681C12D10868400628D4086840065CBF49
:101DB00008685FEA406021D4086840064FF00000E0
:101DC000F0D51CE00868400618D4FFF795F9A0EBA1
:101DD00009002168A842F5D9C86820F08000C860D1
:101DE000C86820F02000C860C86820F48070C8600F
:101DF000486920F001004861032000E00020012133
:101E000084F83D10002184F83C1001B0BDE8F08357
:101E1000FEE7000080B582B00020CDE9000040F26E
:101E2000700047F20041C2F20000C4F200010160FC
:101E3000FEF7DCFF20B1EFF3108072B6FEE700BFC3
:101E400040F27000C2F2000069460022FEF7A6FFD1
:101E500020B1EFF3108072B6FEE700BF02B080BD84
:101E60002DE9F04786B0002743F630000597CDE90D
:101E70000377CDE901770097C4F20200016841F6CB
:101E8000000A41F0040101600168C4F2020A01F095
:101E900004010091009900970168AAF5A05641F04D
:101EA000800101600168002201F080010091009929
:101EB0000097016844F2810841F001010160016866
:101EC00001F00101009100990097016841F00201C1
:101ED0000160016801F0020100910099009701681A
:101EE00041F008010160016801F0080100910099CA
:101EF0000097016841F040010160006844F28101EF
:101F000000F04000009000983046FFF7EFF8504690
:101F1000402100224FF04009FFF7E8F84FF400504D
:101F200001904FF4881001ADCDE90207AAF5805069
:101F30002946FFF70BF8012430462946CDF80480E6
:101F4000CDE902470497FFF701F850462946CDE94D
:101F50000194CDE90377FEF7F9FF8020CDE9010771
:101F6000504629460397FEF7F1FF4FF4E8500190E1
:101F70000220CDE90207032004900A20AAF5C054EC
:101F8000059020462946FEF7E1FF4FF40070CDE9A9
:101F90000107204629460397FEF7D8FF2820002195
:101FA0000022FFF72BF92820FFF716F906B0BDE84D
:101FB000F087000080B582B040F2840041F2000258
:101FC0000021C2F20000C4F200024FF6FF73CDE917
:101FD0000011C0E90021C0E902138161FFF7D8FCBC
:101FE00020B1EFF3108072B6FEE700BF40F284002C
:101FF000C2F200006946FFF76DFC28B1EFF31080D4
:1020000072B600BFFEE700BF02B080BD80B540F2EF
:10201000CC0044F60001C2F20000C4F2000100232B
:102020004FF00C0C4FF4E13280E80E00C0E90333AE
:10203000C0E905C3C0E90733FFF744FD002808BF26
:1020400080BDEFF3108072B6FEE70000FEE70000EF
:10205000FEE700007047000070470000FFF752B82D
:1020600070B594B007AC20463421FEF75CFA002529
:1020700043F640000695CDE90455CDE9025501959A
:10208000C4F202000168012241F080510160006841
:10209000022600F080500190019847F2000001955F
:1020A000C4F20000016862F38F310160006800F43F
:1020B00040400190019810200B9008200F90642060
:1020C000CDE91006204607960A92CDE90D65CDE9C7
:1020D0001266FFF7FBF928B1EFF3108072B600BF6C
:1020E000FEE700BF0F20CDE902064FF4A050059097
:1020F0004FF48050069002A803210495FFF7BAF828
:1021000020B1EFF3108072B6FEE700BF14B070BDCF
:102110004EF68850CEF20000016841F47001016073
:102120007047000010B540F6FF3E0368C4F2000E91
:1021300040F2004C7045C4F2010C25DCB0F1804F38
:102140002FD040F20042C4F20002904229D040F663
:102150000002C4F20002904223D041F6FF72C4F2A2
:102160000002904227DC70453ADCB0F1804F5BD032
:1021700040F20042C4F20002904255D040F6000204
:10218000C4F200024EE000BF40F60042C4F200027A
:10219000904206D0604504D00022C4F20102904271
:1021A000DBD14A6823F07003134341F6FF72C4F297
:1021B00000029042D7DD43F6FF72C4F20102904262
:1021C00020DC42F20002C4F2000290422CD0002235
:1021D000C4F20102904227D0604525D028E000BF1C
:1021E00040F60042C4F2000290421DD041F60002C7
:1021F000C4F20002904217D041F60042C4F200023D
:1022000010E000BF44F20002C4F2010290420BD081
:1022100044F60002C4F20102904205D044F20042AA
:10222000C4F20102904203D1CA6823F440731343FD
:1022300023F080024B69D1F800E08C681A430260F9
:10224000C46240F48062C0F828E0624504BF0969B6
:1022500001630121416110BDFEE7000000000000A4
:10226000A0B0FEF75DFFFFF7FBFEFFF7F9FDFFF7FC
:10227000D1FDFFF79FFEFFF7C9FE40F27004C2F2E6
:1022800000042046FEF7B2FD20460021FEF710FEB6
:1022900040F28404C2F20004206842F210718162AC
:1022A0002046FFF7BDFB42F27410C0F220000A90F6
:1022B00047F22040C7F26530099046F67410C6F226
:1022C0006E70089047F25020C6F6696007AE07901E
:1022D0003046FEF709F940F2CC0BC2F2000B82B295
:1022E000584631466423FFF7C3FC2046FFF798FBAE
:1022F0003220FEF709FE3220FEF706FE3220FEF7FE
:1023000003FE3220FEF700FE3220FEF7FDFD3220F4
:10231000FEF7FAFD3220FEF7F7FD3220FEF7F4FD5E
:102320003220FEF7F1FD3220FEF7EEFD3220FEF7FF
:10233000EBFD3220FEF7E8FD3220FEF7E5FD32200E
:10234000FEF7E2FD3220FEF7DFFD3220FEF7DCFD76
:102350003220FEF7D9FD3220FEF7D6FD3220FEF7FF
:10236000D3FD3220FEF7D0FD3220FEF7CDFD322026
:10237000FEF7CAFD3220FEF7C7FD3220FEF7C4FD8E
:102380003220FEF7C1FD3220FEF7BEFD3220FEF7FF
:10239000BBFD3220FEF7B8FD3220FEF7B5FD32203E
:1023A000FEF7B2FD3220FEF7AFFD206844F6D351B0
:1023B000406AC1F26201A0FB0101880901F0A2FCA0
:1023C00002460B4696A13046FEF70AF83046FEF765
:1023D0008BF882B2584631466423FFF749FC2068E7
:1023E0009FED810B406A9FED841B069051EC100B12
:1023F0009FED7F0B9FED8DDACDE9041051EC100BB2
:102400009FED7F9B9FED80AB9FED81BB9FED82CBCE
:10241000CDE9021051EC110BCDE9001040F270092A
:10242000C2F2000948460021FEF742FD1DEE100AE7
:1024300001F0ECFE41EC100B80460F4600F0F8FC7A
:10244000059C049D51EC100B22462B4601F0E6FC46
:1024500022462B4601F0C4F9DDE9023201F0DEFC30
:1024600001F08CF9DDE9003208EE100A40463946E9
:1024700001F0B6F901F082F9BCEEC80A054610EE8B
:10248000103A484600210022FEF7FEFC284601F0E3
:10249000BDFE07464C468946304665A13A464B4646
:1024A000FDF79EFF2046002100226423FEF7ECFC8E
:1024B0005AEC198B384649464246534601F0EDFE28
:1024C000A0B940F28400C2F200000068406A069998
:1024D000421A304659A1FDF783FF40F27000C2F264
:1024E0000000002100226423FEF7CEFC40F28400AD
:1024F000C2F20000006800214162406AB0EE4A8AE0
:102500000DEE105AF0EE6A8A0FF23C19069000BFE9
:10251000B0EE480AF0EE680A00F08AFC53EC1B2B80
:1025200051EC100B01F07AFC01F0A6FB054601F01E
:10253000D2FBB0EE480AF0EE680A07460C4600F0FF
:1025400077FC53EC102B3846214601F071FD024612
:102550000B4630464946FDF743FF3046FDF7C4FFC2
:1025600082B2584631466423FFF782FB40F2700086
:10257000C2F20000002100222B46FEF785FC51EC40
:10258000180B53EC1C2B01F02BF901F0F7F801F0BC
:102590003DFE4246534641EC180B01F085FE0028F3
:1025A000B6D140F28400C2F200000068406A069989
:1025B000401A00EE100AB8EEC00A10EE100A01F040
:1025C00025FE02460B46304622A1FDF709FF3046A4
:1025D000FDF78AFF82B2584631466423FFF748FB75
:1025E0001CE700BF00BF00BF666666666666FA3F0E
:1025F0008C2EBAE8A26393409A9999999999A93F28
:102600001F85EB51B81E19400000000000000000BB
:10261000000000000000B0417B14AE47E17A843F27
:10262000636F756E74203D2025660A00000000006F
:10263000636F756E743D25660D0A000074696D65E3
:102640003D25640D0A0000004572726F723A202524
:10265000660A00000A0A0A74696D652074616B6578
:102660006E3A2025660A0A0A000000005FEA400C64
:1026700008BF91F0000F4FEA8C234FEAC12243EAD2
:1026800051514FEA1C5018BF00F5F0404FEA30009E
:1026900018BF41F000415FEA6C5C00F02980BCF19A
:1026A000FF3F08BF40F080407047130C06BF120484
:1026B0004FF0100C4FF0000C130E04BF12020CF17F
:1026C000080C130F04BF12010CF1040C930F04BF8C
:1026D00092000CF1020CD30F04BF52000CF1010C5C
:1026E00011464FF00002A0F11F00A0EB0C00704754
:1026F00011F0004F08BF704731F000413FF4D5AFF3
:102700000B0C06BF09044FF0100C4FF0000C0B0E21
:1027100004BF09020CF1080C0B0F04BF09010CF1F6
:10272000040C8B0F04BF89000CF1020CCB0F04BF0B
:1027300049000CF1010CCCF1200322FA03F341EA29
:10274000030102FA0CF2A0EB0C0000F1010070474B
:1027500023F07F4720F07F4C80EA030000F0004028
:10276000ACEB070303F57C5303F1FF032DE980492C
:1027700009B44FEA144324EA03484FEA154B25EA0B
:102780000B4E0FF2042606EB13273E7803FB066779
:10279000C7F5000707FB06F64FEAD64606F1020624
:1027A0004FEA543707FB066CCCF1005C4FEA1C473C
:1027B0002CEA074C0CFB06F507FB06F404EB154668
:1027C0004FEA961649085FEA320234BF00204FF004
:1027D00000404FEAD13706FB07FC4FEA1C4C0CFBCC
:1027E0000BF7D21B03FB0CF761EB07010CFB0EF799
:1027F000B0EB074072EB17420CFB08F734BFA2EBBB
:102800000742B2EB074261EB17414FEA0C444FEA33
:10281000910706FB07FC4FEA1C4C0CFB0BF7B0EBD7
:10282000C74072EB573203FB0CF734BFA2EBC74231
:10283000B2EBC74261EB57310CFB0EF7B0EBC700B0
:1028400072EB57720CFB08F734BFA2EBC702B2EB76
:10285000C70261EB57714FEA816141EA92114FEA79
:10286000826242EA90124FEA806004EBCC04039F3C
:102870004FEAD13706FB07FC4FEA1C4C0CFB0BF769
:10288000D21B03FB0CF761EB07010CFB0EF7B0EB5F
:10289000074072EB17420CFB08F734BFA2EB07426C
:1028A000B2EB074261EB17414FEA8C5504EB9C24D5
:1028B0004FEA910706FB07FC4FEA1C4C0CFB0BF799
:1028C000B0EBC74072EB573203FB0CF734BFA2EBFF
:1028D000C742B2EBC74261EB57310CFB0EF7B0EBCE
:1028E000C70072EB57720CFB08F734BFA2EBC702AC
:1028F000B2EBC70261EB57714FEA816141EA921175
:102900004FEA826242EA90124FEA806015EB4C2552
:1029100044F100044FEAD13706FB07FC4FEA1C4C98
:102920000CFB0BF7D21B03FB0CF761EB07010CFB55
:102930000EF7B0EB074072EB17420CFB08F734BF01
:10294000A2EB0742B2EB074261EB17414FEA81313C
:1029500041EA92414FEA823242EA90424FEA8030A5
:102960004FEA0C7615EB1C1544F1000448EA0343CA
:102970004EEA0B484FF0000EB2EB080C71EB030768
:1029800024BF624639464EEB0E0E4FF0000B001886
:10299000524149414BEB0B0BB2EB080C71EB0307B7
:1029A0007BF1000B24BF624639464EEB0E0E4FF012
:1029B000000B0018524149414BEB0B0BB2EB080CDA
:1029C00071EB03077BF1000B24BF624639464EEBE7
:1029D0000E0E51EA020718BF46F0010616EB0E76FE
:1029E00055F1000254F1000103D5BDE88901BDE8AD
:1029F0000088BDE88901BDE80048B619524141EBA5
:102A00000101A3F10103704780807F7E7D7C7B7A8A
:102A10007978777676757473727171706F6E6E6D8A
:102A20006C6C6B6A6A696868676666656464636330
:102A300062616160605F5F5E5E5D5D5C5C5B5B5AB6
:102A40005A59595858575756565555555454535323
:102A500052525251515050504F4F4F4E4E4D4D4D7E
:102A60004C4C4C4B4B4B4A4A4A49494948484847C9
:102A70004747474646464545454444444443434307
:102A800043424242424141419C46002B30D47700B0
:102A90002BD04FEA37071CB503B44FF010004FF0AE
:102AA0001001BAF1000F06D0BCF1000FDCBF40F0FE
:102AB000080040F008014FF000000FBCBDE81040D6
:102AC0000BF1010BBBF1010F08BF5FEA170722BF33
:102AD00012F1010211F101014FF0004143F1000335
:102AE00000F0004043EA00007047F9D35708D0E7F0
:102AF00046EA06464FEA164613F1400F1FDD13F172
:102B0000200FDFBF16430A46002120335B42BED0B0
:102B1000C3F1200746EA06464FEA164602FA07F7CF
:102B200046EA070622FA03F2C3F1200701FA07F783
:102B300042EA070221FA03F14FF00003A7E746EA51
:102B4000020646EA06464FEA164646EA0106BCBFBA
:102B500046EA0646360C4FF000034FF000024FF0F5
:102B6000000194E72DE9804C70B49A46934691E8B1
:102B7000380007C831EA400C48BF34EA430C03D59B
:102B8000FFF7E6FDFFF780FFF0BCBDE8008C2DE904
:102B9000804C70B49A46934691E8380007C810F00C
:102BA000804F08BF13F0804F03D100F005F8FFF706
:102BB0006BFFF0BCBDE8008C20F07F4723F07F4C1A
:102BC00080EA030000F0004007EB0C03A3F57C5300
:102BD000A3F1FE0392F0000F00F0B38095F0000F18
:102BE00000F077802DE901494FEA114021EA0048C1
:102BF0004FEA144624EA064700FB06FC08FB06F6EB
:102C000007FB08F818EB06484CEB164C00FB07F7DF
:102C100018EB07484CEB17404FEA124B22EA0B4ED9
:102C20004FEA154625EA06470BFB06FC0EFB06F6A7
:102C300007FB0EFE1EEB064E4CEB164C0BFB07F78C
:102C40001EEB074E4CEB174B18EB0B0840F1000046
:102C500018EB0E0B58EB000840F100008F1A4FF0F4
:102C600000014FF000063CBFC943661B14BFB5EB23
:102C7000040C00213CBFC943F61B4FEA174427EA66
:102C800004454FEA1C472CEA074C04FB076205FB8E
:102C900007F70CFB05F616EB074642EB174204FB61
:102CA0000CFC16EB0C4642EB1C421BEB060658EBE9
:102CB000020241414EEA8E0E46EA9E0601D5BDE86B
:102CC0000189B619524141EB0101A3F10103BDE8AD
:102CD00001894FEA144524EA05464FEA114721EAE3
:102CE000074C05FB07F406FB07F70CFB06F111EB9D
:102CF000074144EB174405FB0CFC11EB0C4144EB82
:102D00001C444FEA124722EA074C05FB07F206FB78
:102D100007F70CFB06F616EB074642EB174205FBDE
:102D20000CFC16EB0C4642EB1C456A1854F10001F2
:102D300048BF7047B619524141EB0101A3F10103AD
:102D4000704795F0000F37D04FEA114221EA024652
:102D50004FEA144724EA074C02FB07F106FB07F78A
:102D60000CFB06F414EB074441EB174102FB0CFC8F
:102D700014EB0C4441EB1C414FEA154725EA074C84
:102D800002FB07F506FB07F70CFB06F616EB0746FA
:102D900045EB174502FB0CFC16EB0C4645EB1C42C1
:102DA000121951F1000148BF7047B619524141EB69
:102DB0000101A3F1010370474FEA144524EA0546D7
:102DC0004FEA114721EA074C05FB07F106FB07F71D
:102DD0000CFB06F212EB074241EB174105FB0CFC22
:102DE00012EB0C4251EB1C414FF0000648BF7047FC
:102DF000921841EB0101A3F10103704703B401985C
:102E00004100009850EAC12018BF04204A0D18BFA5
:102E100040F0010040F2FF72B2EB515F08BF40F09A
:102E20000200012808BF052002B070470000000022
:102E300010B52F499FED2C1B2DED020B84B005988A
:102E400020F000408842DCBF00209DED040B32DD05
:102E50002849884209D1049840B94FF00100FDF794
:102E600091FB00F03DFC06B010BD05DB9DED040BB1
:102E700000F02AFC06B010BD68469DED040B00F082
:102E80003BF810F0030011D0012818D09DED021B73
:102E90009DED000B02281AD000F04AFA51EC100BFD
:102EA00000F060FC06B041EC100B10BD9DED021B64
:102EB0009DED000B012000F06FFB06B010BD9DEDF5
:102EC000021B9DED000B00F033FA06B010BD01208F
:102ED00000F062FB51EC100B00F044FC06B041EC3A
:102EE000100B10BD000000000000000000000000FA
:102EF000FB21E93F0000F07F2DE9F14F04462DED65
:102F0000020B2DED088B8AB09FEDE70B80ED020BD5
:102F1000139EE74826F0004585420ADC9DED120B22
:102F2000002084ED000B0AB0BDEC088B03B0BDE8B7
:102F3000F08FE0489FEDE0AB9FEDE1BBA84247DD9D
:102F4000E14F9FEDE39B9FEDE48B9DED120B53EC66
:102F50001A2B51EC100B002E1CDD01F069F841EC2E
:102F6000100BBD4208D053EC1B2B51EC100B01F0A1
:102F70005FF8C4E900010BE053EC192B51EC100B86
:102F800001F056F853EC182B01F052F8C4E9000197
:102F90000120C8E700F024FC41EC100BBD4208D032
:102FA00053EC1B2B51EC100B00F01AFCC4E9000190
:102FB0000BE053EC192B51EC100B00F011FC53EC0F
:102FC000182B00F00DFCC4E900014FF0FF30AAE718
:102FD000C348A84279DB9DED120B51EC100B00F0B9
:102FE0009FFB41EC180B9FEDC00B53EC102B00F036
:102FF00015FF9FEDBF1B53EC112B00F0F1FB00F010
:103000003BFE074600F067FE41EC190B53EC1A2B10
:1030100000F004FF53EC182B00F0FEFF41EC180BFE
:1030200053EC1B2B51EC190B00F0F8FEDFF8C8A293
:1030300041EC100B4FEA15580125FA4453EC102BC4
:1030400051EC180B00F0F4FF032DC4E900013DD052
:10305000C1F30A5005EB4511A8EB0000113981427C
:1030600034DA0AEB051BB0EE48AA9BED000BF0EE3C
:1030700068AA53EC102B51EC190B00F0CFFE41EC79
:103080001B0B51EC1A0B53EC1B2B00F0D1FF41EC46
:10309000180B51EC1A0B53EC182B00F0C9FF53EC32
:1030A0001B2B00F0C5FF9BED020B41EC1A0B53EC00
:1030B000102B51EC190B00F0B1FE53EC1A2B00F061
:1030C000B7FF41EC100B6D1CB8E70EE0002EA8BF57
:1030D0003846BFF628AF94ED000B51EC100B00F012
:1030E00041FBC4E9000178421DE7C6F3130040F438
:1030F000801EC6F30A50A0F2F530471100F01F05FC
:10310000C5F12000DDF848B0089000200690079037
:103110000520EC467949002D07EB0002794408BFF1
:1031200051F8221009D051F8223001EB8201AB4056
:103130004A68089922FA01F11943A1FB0E26A1FB66
:103140000B131A449A4234BF0123002303EB0608F1
:103150000CEB8003D3E901A60E448E4234BF01215B
:10316000002192448A4411B1924502D903E092456C
:1031700001D2012100E00021C3E901A641444CF83D
:103180002010011EA0F10100C4DC029800F10050E3
:10319000850F0298DDE903678000DDF8148000F0F8
:1031A0009AFD41EC1A0B304600F0ACFD9FED541B2C
:1031B00053EC112B00F032FE41EC1B0B384600F0B3
:1031C000A1FD9FED511B53EC112B00F027FE41ECAC
:1031D000180B404600F096FD9FED4D1B53EC112B54
:1031E00000F01CFE41EC190B51EC180B53EC192BA1
:1031F00000F0F6FA53EC1B2B00F0F2FA53EC1A2B0A
:1032000000F0EEFACDE90801002008909DED080BD2
:1032100053EC1A2B51EC100B00F00AFF53EC1B2B54
:1032200000F006FF53EC182B00F002FF53EC192BB3
:1032300000F0F2FE9FED381B53EC112B00F0EEFD79
:103240009FED370B41EC180B53EC102B9DED080B49
:1032500051EC100B00F0E2FD53EC182B00F0C0FA1B
:103260009FED310B41EC180B53EC102B9DED080B2F
:1032700051EC100B00F0D2FD53EC182B00F0B0FA1B
:1032800041EC100B139810F0004F06D06D4251EC3A
:10329000100B00F067FA41EC100B284684ED000B90
:1032A00041E60000000000000000000000000000F7
:1032B000FB21E93F7CD9024000004054FB21F93F4B
:1032C0003163621A61B4D03DFB21F93F0000000078
:1032D0000000601A61B4D03D7370032E8A19A33BBD
:1032E000FB2139410000000083C8C96D305FE43F15
:1032F000000000000000E03F62130000B012000078
:10330000000000000000103E000000000000103C23
:10331000000000000000103A182D4454FB21F93D34
:103320003326A611460B113C00000054FB21F93D49
:1033300010B52DED040B2DED088B82B0B0EE419A47
:10334000F0EE619A0B9820F000449FED4BABB4F186
:10335000795F11DA9DED0A0B51EC100B00F08CFC3B
:10336000002801BFB0EE4A0AF0EE6A0A02B0BDECD6
:10337000088B04BF04B010BD9DED0A0B53EC102B5D
:1033800051EC100B00F04AFD41EC180B3C480621B3
:10339000B0EE480AF0EE680A784400F081F853EC89
:1033A000182B51EC100B00F039FD9DED0A0B41EC90
:1033B0001B0B53EC192B51EC100B00F02FFD41ECC3
:1033C000190B53EC1B2B51EC180B00F027FD53ECA1
:1033D000192B00F02DFE9FED2C0B41EC190B53EC3B
:1033E000102B51EC180B00F019FD41EC100B284884
:1033F000844210DA53EC192B51EC100B00F018FE3C
:1034000053EC1A2B00F008FE41EC100B02B0BDEC9F
:10341000088B04B010BD1F48A042BCBF9FED1E1B0F
:103420008DED001B06DBA4F500100190002000903C
:103430009DED001B51EC100B53EC112B00F0F8FD2F
:103440009DED000B41EC180B53EC102B51EC1A0BBB
:1034500000F0EEFD41EC1A0B53EC192B51EC180B5C
:1034600000F0E6FD53EC1A2B00F0D6FD41EC100BFA
:10347000CCE7000000000000000000000000F03F6A
:10348000D40F000000000000000000000000E03F3A
:103490003333D33F0000E93F000000000000D23F7B
:1034A00070B504462DED028B4D1E00EBC500B0EE4D
:1034B000408AF0EE608A90ED000B35F0060017D0E0
:1034C00053EC182B51EC100B00F0A8FC41EC100B46
:1034D0006D1E04EBC50090ED001B51EC100B53EC7E
:1034E000112B00F07DF941EC100B35F00600E7D10F
:1034F000022D36D0042D1CD0062D1CBFBDEC028B36
:1035000070BD53EC182B51EC100B00F087FC94EDC0
:103510000A1B53EC112B00F063F953EC182B00F04D
:103520007DFC94ED081B53EC112B00F059F941EC94
:10353000100B53EC182B51EC100B00F06FFC94EDBA
:10354000061B53EC112B00F04BF953EC182B00F039
:1035500065FC94ED040B53EC102B00F041F941ECA9
:10356000100B53EC182B51EC100B00F057FC94EDA2
:10357000021B53EC112B00F033F953EC182B00F025
:103580004DFC94ED001B53EC112B00F029F9BDEC20
:10359000028B41EC100B70BD31B504462DED040BD0
:1035A0002DED0A8BB0EE41BAF0EE61BA0B989DEDAD
:1035B0000A0B20F00040B0F1795F0DDA51EC100BEE
:1035C000FFF71CFC042808BF00F09AF89DED0A0BD9
:1035D000BDEC0A8B05B030BD53EC102B51EC100B39
:1035E00000F01CFC41EC180B9DED0A0B53EC182B62
:1035F00051EC100B00F012FC41EC190B2C48B0EE12
:10360000480AF0EE680A05217844FFF749FF9FED6C
:103610002ACBB0EE40AAF0EE60AA9CB353EC1C2B70
:1036200051EC190B00F0FAFB41EC1C0B53EC1A2B7C
:1036300051EC190B00F0F2FB9FED210B41EC190B43
:1036400053EC102B51EC1B0B00F0E8FB53EC192B47
:1036500000F0EEFC53EC182B00F0E0FB53EC1B2BBE
:1036600000F0E6FC53EC1C2B00F0E2FC9DED0A1B85
:1036700053EC112B00F0D0FCBDEC0A8B05B041ECF3
:10368000100B30BDFFE753EC1A2B51EC180B00F078
:10369000C5FB53EC1C2B00F0A3F853EC192B00F0E6
:1036A000BDFB9DED0A1B53EC112B00F099F8E3E7ED
:1036B000640E000000000000495555555555C5BF22
:1036C000000000000000E03F10B553EC102B51EC5F
:1036D000100B00F085F841EC100B10BD000000004D
:1036E0009FED050B10B553EC102B51EC100B00F0B7
:1036F0002BF941EC100B10BD000000000000000091
:103700009FED050B10B553EC102B51EC100B00F096
:1037100085FB41EC100B10BD000000000000001004
:1037200082B0CDE9000121F0004001909DED000B39
:1037300002B051EC100B704710B500290AD0087880
:10374000002807D005487844FDF7DAFA002801D0B0
:10375000002010BD0248784410BD00001E0E00007D
:10376000160E000081F00041704780F00040704765
:1037700021F00041704720F00040704721F00042E6
:1037800001F00043A2F16052B2F5801F28BFD2F1D0
:103790007F6C0BD95FEA001C43EAC20242EB507017
:1037A00018BF704728BF20F001007047B2F5801F96
:1037B000BCBF184670474FEA410C1CF5001F02D2EF
:1037C000084600F0CBBD70B500F0D2FB00000089C8
:1037D000FFF7F6BF4FF00040A0F5800070470000F3
:1037E00010B591EA030F48BF83F0004300F128842D
:1037F000841A71EB030C05D2121943EB0C03001B66
:1038000061EB0C014FEA1154A4EB135CDFF81CE1EF
:103810001EEA430F18BF9EEA445F00F0748021EA5D
:10382000045123EA0E0343F48013DCF1200E32D35B
:1038300022FA0CFE10EB0E0023FA0CFE41EB0E01F7
:10384000CCF1200E03FA0EFE10EB0E00CCF1200E90
:1038500051F10001B1F5801F32D201EB045112FA8F
:103860000EF2BDE8104058BF7047401C38BF5FEAF9
:10387000420218BF7047002814BF20F0010041F138
:1038800000014FEA410313F5001F38BF7047A1F153
:10389000C04100F0BBBB012A43EB0302ACF1200C9A
:1038A000DCF11F0E32BF4FF0000E23FA0CF310EBC9
:1038B000030041EB0451B4EB115FD0D0A1EB0451F4
:1038C00001F58011490801EB04515FEA30000ED385
:1038D00050F1000038BF12FA0EFE08D1BDE81040CA
:1038E000C9E7401C38BF5FEA4202CAD1C3E7BDE85E
:1038F00010404FEA410313F5001F38BF7047A1F194
:10390000C04100F083BB9EEA445F08D011EA5E0F1D
:10391000BDE8104004BF01F0004100207047BDE841
:10392000104070B500F024FB64FBBE3E0000E0FFD9
:10393000491058BFC1F140415B1058BFC3F140432B
:103940008B42EFF3008070472DE9C04130B4DFF8BF
:10395000A8C23CEA111418BF3CEA131400F0F0802E
:103960001CEA111481EA030544EAD57418BF1CEA65
:10397000131500F0CB80A4EB050404F17F7404F56B
:1039800000344FF0004545EAC12145EAC32341EA2E
:10399000505143EA52534FEAC0204FEAC2229942A3
:1039A00008BF904200F0A0804FEA13650FF248165E
:1039B000765D4FEA134506FB05F7C7F1807706FBF6
:1039C00007F74FEAD737A7FB03687642A7FB06CE77
:1039D000C8F5803838BFA8F1010807FB08E6A6FB48
:1039E000028C4FF0000EE6FB03CED8F100086FEA20
:1039F0000C0C5CF1000C6FEA0E0E4EF1004EA6FBB3
:103A00000C584FF00007E6FB0E87A1FB08C6A0FB91
:103A100007CE16EB0E064FF0000545F10005E1FB61
:103A2000076515F1E04E7EBFA4F580345FEA4606D7
:103A30006D4116F1800745F100054FEA172747EA67
:103A400005674FEA15254FEA0666A6F1DE46B6F190
:103A5000805F20D9384605EBC47124F0010C01EBDE
:103A60000C11BCF1FE6F02D8F0BCBDE8008124420D
:103A70005CBF01F5801E9EEAC47F02D4F0BCBDE8A5
:103A80000081244200F13980A1F1C041F0BCBDE8C1
:103A9000004100F0BBBA4FEAD02040EA41504FEA63
:103AA000D1214FEAD22242EA43524FEAD323A7FB65
:103AB000028607FB036605FB02661EEA0E0F58BF6F
:103AC000A6EB0056B6EB00564FEA520E4EEAC37E06
:103AD00018EB0E0E56EB530EBCD518EB02085E41E8
:103AE0007F1C55F10005B5E74FF480154FF0000736
:103AF0004FF000064FF00008ACE701F1C04101F0C3
:103B000000414FF00000F0BCBDE800810CEA131545
:103B100011EA0C1F00D00CE013EA0C1F00F0258006
:103B20004FF0000081EA030101F00041F0BCBDE864
:103B30000081F0BCBDE8004181EA030100F066BAF3
:103B4000F0BCBDE8004170B500F012FA097EFC3E01
:103B500000F007B84FF0000081EA030101F00041D6
:103B6000704781EA030100F051BAF0BCBDE80041A2
:103B700022494FF000007047FFFDFBF9F7F5F4F222
:103B8000F0EEEDEBE9E8E6E4E3E1E0DEDDDBDAD8F8
:103B9000D7D5D4D3D1D0CFCDCCCBCAC8C7C6C5C456
:103BA000C2C1C0BFBEBDBCBBBAB9B8B7B6B5B4B36D
:103BB000B2B1B0AFAEADACABAAA9A8A8A7A6A5A458
:103BC000A3A3A2A1A09F9F9E9D9C9C9B9A9999981C
:103BD0009797969595949393929191908F8F8E8EBF
:103BE0008D8C8C8B8B8A898988888787868585844C
:103BF00084838382828181800000FF070000F87F38
:103C000051EA030C17D41CF5801F58BFBCF5801F68
:103C100000F10680994218BF704708BF9042704774
:103C200007D711F5801F58BF13F5801F19D499428B
:103C30007047894270471CF5801F08D5BCF5801F6E
:103C4000F7D58B4218BF704708BF824270474FF4C8
:103C5000001C1CEB410F38BF1CEB430F01D28B4201
:103C6000704770B500F084F9922449004FF000517C
:103C70004FF08053FFF75CBE4FEA41034FEA5353C6
:103C8000A3F58063D3F11E03C8BFD3F1210C0CDD73
:103C90004FF0004242EAC12242EA505232FA03FC9B
:103CA0008CEAE17CACEBE1707047102BC4BF0020C4
:103CB000704703F5787CBCF1FF3F04D06FF0004201
:103CC00082EA2100704770B500F052F949922480D1
:103CD00000207047F2E710F0004248BF4042B0FABF
:103CE00080F310FA03F10AD0C3F11D0303F58063DA
:103CF00002EB03524FEA415002EBD12170474FF0E3
:103D000000007047B0FA80F310FA03F10AD0C3F153
:103D10001D0303F580634FEA03524FEA415002EB63
:103D2000D12170474FF000007047000051EA030CAA
:103D300017D41CF5801F58BFBCF5801F00F106800A
:103D4000994218BF704708BF9042704707D711F5D6
:103D5000801F58BF13F5801F19D4994270478942BC
:103D600070471CF5801F08D5BCF5801FF7D58B4226
:103D700018BF704708BF824270474FF4001C1CEB0D
:103D8000410F38BF1CEB430F01D28B42704770B517
:103D900000F0EEF8922449004FF080514FF00053AC
:103DA000FFF7C6BD51EA030C17D41CF5801F58BF9E
:103DB000BCF5801F00F10680994218BF704708BF0C
:103DC0009042704707D711F5801F58BF13F5801F29
:103DD00019D499427047894270471CF5801F08D555
:103DE000BCF5801FF7D58B4218BF704708BF8242D1
:103DF00070474FF4001C1CEB410F38BF1CEB430F06
:103E000001D28B42704770B500F0B2F8922449009D
:103E10004FF000514FF08053FFF78ABD70B5DFF8C7
:103E200048C11CEA111E1EBF1CEA13159EEA0C0FA6
:103E300095EA0C0F00F06F8081EA03044EEAD47E0D
:103E4000AE4421EA4C1123EA4C1341F4801143F4AF
:103E50008013AEF17F7EA1FB024CA0FB03653619F7
:103E600055EB0C05A1FB034C4CF10003A0FB021C1D
:103E700016EB0C06654153F10003094218BF46F0EA
:103E8000010613F4007F0BD14FEA03314FEA0530EE
:103E900041EA155140EA165034036FF003020AE07C
:103EA0004FEAC3214FEAC52041EA555140EA565036
:103EB000F4026FF0020202EB2E4201EB025585EA9A
:103EC000CE710AD05FEA440C18BF24F0004450F1D0
:103ED000000041F1000120EAD47040F2FE7C62450E
:103EE00000D270BDA84214BF4FF080444FF0404450
:103EF000002E08BF0024BEF1806FA8BFA1F1C04111
:103F0000BDE8704080F2828001F1C04101F00041C3
:103F10004FF0000070470CEA13159EEA0C0F18BF13
:103F200095EA0C0F06D081EA030E4FF000000EF068
:103F3000004170BD00F01CF88900013E00F007B898
:103F400000F009B84FEA430C5FEA5C5C08D081EAF4
:103F5000030100F05BB84FEA410C5FEA5C5CF6D10C
:103F600002494FF0000070470000FF070000F87F93
:103F70000EF1020E2EF0030E5EF8046B364205D4ED
:103F8000012A43EB030515F5001F12D8012841EB68
:103F9000010C1CF5001F0CD80ED14FEAD17C0CEBA4
:103FA0004C0C0CF1020C15F5001F08BF4CEBD37C38
:103FB00004E04FF0080C01E04FEAD37C0CEB4C0519
:103FC00026FA05F606F00706B6F1040C06D20EEB4B
:103FD000860CBDE870404CF0010C6047DFE80CF047
:103FE000090B02024FF00041A1F500214FF0000043
:103FF00070BD19461046012851EB010418BFD4F5D5
:10400000001484BF002001F0004170BD0808A0F535
:1040100000114FEA3101704710B591EA030F81F0AA
:1040200000413FF5E5AB83F0004300F009B8000024
:1040300010B591EA030F48BF83F000433FF5D8ABBA
:10404000841A71EB030C07D28CF0004C121943EB6D
:104050000C03001B61EB0C014FEA1154A4EB135C41
:10406000DFF8A4E11EEA430F18BF9EEA445F00F0A8
:10407000B48021EA045123EA6E035242C3EB6E037B
:1040800038BF5B1EDCF1200E25D322FA0CFE10EBAC
:104090000E0043FA0CFE41EB0E01CCF1200E03FAA8
:1040A0000EFE10EB0E00CCF1200E51F1000129D4D0
:1040B00001EB045112FA0EF2BDE8104058BF7047F0
:1040C000401C1CBFB2F1004F704700280CBF491CB8
:1040D00020F00100704712EB020E43EB030218BF01
:1040E0004FF0010E4EEA4202ACF1200CDCF11E0E44
:1040F00056D943FA0CFE10EB0E00CCF11E0E51F116
:10410000FF31D5D50EF1010E12FA0EFE404141EB02
:10411000010101EB445C5FEA5C5C10D901EB0451E6
:1041200010EBDE7038BFBEF1004FBDE8104018BF85
:10413000704700280CBF491C20F00100704734D2A2
:104140004FEAD42C24F4006411F500111BD0B1FA0D
:1041500081F20B3AA41AA41ED2F12003914030FA46
:1041600003F31943904001EBCC7101EB0451002C97
:10417000BDE81040A8BF704701F1C04101F0004107
:104180004FF000007047B0FA80F310FA03F102D14B
:10419000BDE810407047E41A173C4805C90AE2E739
:1041A00001EB0451BDE81040704749104FEA300060
:1041B00001EB0451BDE8104002E04FF000017047F0
:1041C0004A0008BF0042F8D0B2F5001F28BF704770
:1041D00001F000414FF0000070479EEA445F07D0B5
:1041E00011EA5E0FBDE8104004BF002100207047B7
:1041F000BDE8104070B5FFF7BBFE00BF40DFF63EE4
:10420000104683F0004170470000E0FF43004FEA92
:10421000D30C4FEA3C0C43401FBF40070CF16051E8
:1042200013F0FE4F70471CF0006F03D10CF00041FB
:10423000002070470CF0004343EA507040EACC0085
:1042400010B500F038F800BF000000924FEA0001FE
:10425000FFF7DCBE4FF00041A1F500214FF0000058
:10426000704710B5FFF7CCFC0CBF0120002010BD3B
:1042700010B5FFF7C5FC14BF0120002010BD10B51C
:10428000FFF754FD8CBF0120002010BD10B5FFF7D3
:104290004DFD2CBF0120002010BD10B5FFF782FDA1
:1042A00094BF0120002010BD10B5FFF77BFD34BF87
:1042B0000120002010BD0EF1020E2EF0030E5EF85C
:1042C000044B244204D44FEA4102B2F17F4F11D88B
:1042D0004FEA4003B3F17F4F0CD80ED14FEAD07CA8
:1042E0000CEB4C0C0CF1020CB2F17F4F08BF4CEB05
:1042F000D17C04E04FF0080C01E04FEAD17C0CEBDC
:104300004C0324FA03F404F00704B4F1040C06D2BD
:104310000EEB840CBDE810404CF0010C6047DFE868
:104320000CF0070802024FF00040A0F5800010BD1D
:104330000846420018BFD2F1807288BF00F00040EA
:1043400010BDF1EE100A4FF6FF71C0F2C03120EA45
:10435000010040F04070E1EE100A7047FF2141EA91
:10436000D050C0057047FCF744BA000000000000C0
:104370004C5555555555A53F7751C1166CC156BF83
:104380009015CB19A001FA3EAD529C804F7E92BE93
:10439000C4B1B4BD9EEE213ED43888BEE9FAA8BDB2
:1043A00000004054FB21F93F3163621A61B4D03DF3
:1043B0000000601A61B4D03D7370032E8A19A33BCC
:1043C0000000002E8A19A33BC14920259A837B391E
:1043D00000000000000000006E83F9A22915444E81
:1043E000D15727FCC0DD34F5999562DB4190433C01
:1043F000AB6351FE61C5BBDE3A6E24B7E0D24D42DD
:10440000EA2E49061C92D1091CEB1DFE3EA729B1DC
:10441000F53582E88444BB2E26709CE9417E5FB46A
:1044200039D69139F43953838B5F849C3B28F9BD8D
:10443000FF97F81F0F9805DE8B112FEF1F6D0A5A9B
:10444000CF7E366DB709CB27663F464F2DEA5F9E7C
:10445000C7BA27757BF1E5EBF739073DEA92528A37
:10446000B15FFB6B085D8D1F4630035600000000F6
:10447000A6F810111111813FD561C119A0012ABF01
:104480007DFEB157E31DC73EEB9C2B8AE6E55ABE85
:104490007CD5CF5A3AD9E53D02400000000000A08B
:1044A0000000000005400000000000C800000000FF
:1044B0000C4000000000409C00000000194000007B
:1044C0000020BCBE0000000034400000BFC91B8EAD
:1044D00000000004B5400000504BCFD06607E2CF8B
:1044E000010000006C4100003E8251AADFEEA734BB
:1044F00001000000D9420000DCB5A0E23A301F976D
:10450000FFFFFFFFB4450000FD25A0C8E9A3C14F90
:10451000FFFFFFFFFF3F00000000008000000000E1
:10452000FF3F0000000000800000000000000000CD
:104530000000000001020304060708090000000053
:104540000102030480450008000000201000000064
:10455000280200089045000810000020080700000D
:10456000480200081C00000043000000F8FFFFFFA5
:104570000C0000000E0000000F0000002E000000E4
:1045800001000000100000000024F4000000000002
:04000005080001C529
:00000001FF
