:020000040800F2
:10000000180C0020A1020008752C000865220008C9
:10001000712C00084D0700082D3500080000000075
:100020000000000000000000000000007D2C00081F
:100030005107000800000000792C0008812C0008FE
:10004000BB020008BB020008BB020008BB0200089C
:10005000BB020008BB020008BB020008BB0200088C
:10006000BB020008BB020008BB020008BB0200087C
:10007000BB020008BB020008BB020008BB0200086C
:10008000BB020008BB020008BB020008BB0200085C
:10009000BB020008BB020008BB020008BB0200084C
:1000A000BB020008BB020008BB020008BB0200083C
:1000B000BB020008BB020008BB020008BB0200082C
:1000C000BB020008BB020008BB020008BB0200081C
:1000D000BB020008BB020008BB020008BB0200080C
:1000E000BB020008BB020008BB020008BB020008FC
:1000F000BB020008BB020008BB020008BB020008EC
:10010000BB020008BB020008BB020008BB020008DB
:10011000BB020008BB020008BB020008BB020008CB
:10012000BB020008BB020008BB020008BB020008BB
:10013000BB0200080000000000000000BB02000835
:10014000BB020008BB020008BB020008BB0200089B
:10015000BB020008BB020008BB020008BB0200088B
:10016000BB020008BB020008BB020008BB0200087B
:10017000BB020008BB020008BB0200080000000030
:1001800000000000BB0200080000000000000000AA
:10019000BB0200080000000000000000BB020008D5
:1001A000000000000000000000000000BB0200088A
:1001B000BB020008BB020008BB020008BB0200082B
:1001C000BB02000800F002F800F05AF814A696E806
:1001D000000CB244B344DA4501D100F051F8BAE85A
:1001E0000F000FA696E83000A5EB040504EB060708
:1001F000AAEB0704A7F101074FEA15154FEA3414DB
:10020000A4F10104AC4201D300F03AF813F0010F5D
:1002100018BFFB1A43F0010300F001F8DBE71847B1
:10022000E83A0000083B0000103A24BF78C878C1C3
:10023000FAD8520724BF30C830C144BF04680C60EC
:1002400070470000704700000023002400250026AE
:10025000103A28BF78C1FBD8520728BF30C148BF29
:100260000B607047752900F02581732900F02F82FB
:10027000002070471FB503F02DFD1FBD10B510BD48
:1002800000F029FA1146FFF7F5FF03F081F900F0BD
:1002900047FA03B4FFF7F2FF03BC00F04FFA000087
:1002A0000948804709480047FEE7FEE7FEE7FEE70A
:1002B000FEE7FEE7FEE7FEE7FEE7FEE70448054946
:1002C000054A064B70470000392D0008C50100089B
:1002D00018060020180C002018080020180800201C
:1002E00053EA020C00F069802DE9F04B4FF0000654
:1002F000002B1FBFB3FA83F503FA05F424FA05F6C1
:100300005E4012BF1643B2FA82F502FA05F4C5F157
:1003100020051EBF22FA05FC44EA0C04203556EAEB
:10032000044C4FEA144418BF641C4FF000084FF00F
:100330000009904271EB030C39D3002919BFB1FABF
:1003400081F701FA07F6B0FA80F700FA07F6C7F16D
:1003500020071EBF20FA07FC46EA0C062037B6FB32
:10036000F4FCA7EB0507103F07F01F0BCBF12006AD
:100370002CFA06F60CFA0BFB44BFB3460026202FDE
:10038000A4BF5E464FF0000B5BEA060C08BF4FF0BF
:10039000010B19EB0B0948EB0608ABFB027C06FBD3
:1003A00002CC0BFB03CCC01B71EB0C01C1E70B466D
:1003B000024641464846BDE8F08B13B5084318BFD6
:1003C0004FF0FF300146AFF30080BDE81C4070479E
:1003D0000FB41CB5074B06AA7B44694600900598EC
:1003E00000F04BF90020694600F05AF91CBC5DF89A
:1003F00014FB0000C50200002DE9F0410E46044642
:10040000002020622046E168884730B3252805D0C7
:10041000D4E901219047206A401CF2E7E1682046B8
:1004200000278847050018D0A5F14100192802D8F7
:1004300020354FF400673246294620462760FFF7F3
:1004400011FF40B1012804D0F61D26F0070608363A
:10045000D8E7361DD6E72846DAE7206ABDE8F081FE
:1004600070B50C460546012A05D02878800600D5CF
:10047000EA69002302E0012305E05B1C934202D2FB
:10048000E05C0028F9D1A869E618C01AA861286ABA
:10049000184428622846AFF3008004E0D5E9012122
:1004A00014F8010B9047B442F8D32846AFF300800C
:1004B00070BD00002DE9F041064600241068752942
:1004C000314616A510D0AFF30080002802DA404272
:1004D00013A507E031688A0701D512A502E0490794
:1004E00004D511A5012401E0AFF3008000210A2208
:1004F00006F1240709E0B0FBF2FCB0FBF2F302FBCB
:100500001C00303078541846491C0028F3D123468B
:100510002A463046BDE8F04100F051B80000000026
:100520002D0000002B0000002000000010B5431C2F
:1005300002E010F8011B71B18107FAD14FF00132CE
:1005400002C88C1A8C4314EAC211F9D0C01A0A06E8
:1005500003D0C01E10BDC01A10BD0A0401D0801EF9
:1005600010BD0902FCD0401E10BD4FF0000200B5C6
:10057000134694469646203922BFA0E80C50A0E8C6
:100580000C50B1F12001BFF4F7AF090728BFA0E874
:100590000C5048BF0CC05DF804EB890028BF40F840
:1005A000042B08BF704748BF20F8022B11F0804F82
:1005B00018BF00F8012B70477047704770472DE94E
:1005C000F0470D4699469246044600F1240801681A
:1005D000880604D5E06921F01001216000E00120C7
:1005E000A84201DD471B00E00027A1697A1902EB50
:1005F0000900081AA0612078C00602D42046AFF393
:100600000080002608E0D4E901211AF8060090478E
:10061000206A401C761C20624E45F4DB2078C00620
:100620000AD52046AFF3008006E0D4E9012130204E
:100630009047206A401C2062381EA7F10107F4DCB5
:1006400007E0D4E9012118F805009047206A401C12
:100650002062281EA5F10105F3DC2046AFF30080DF
:100660002078000602D50220BDE8F0870120FBE7D4
:1006700001694A1C02610878704700B58FB0CDE966
:1006800001310021059105497944CDE90310114656
:100690006846FFF7B1FE0FB000BD0000E5FFFFFFA9
:1006A0000A6802F8010B0A60704710B5436913B17C
:1006B000AFF3008001E0FFF7D3FE012010BD1278F8
:1006C00000F124010A7000224A700122EDE711684E
:1006D0004FF0FF32E9E7754600F02CF8AE46050012
:1006E0006946534620F00700854618B020B5FFF74D
:1006F000E5FDBDE820404FF000064FF000074FF049
:1007000000084FF0000BAC46ACE8C009ACE8C009EB
:10071000ACE8C009ACE8C00921F007018D4670477C
:1007200010B50446AFF300802046BDE81040FFF747
:10073000B0BD00000048704710000020014918209B
:10074000ABBEFEE72600020070470000FEE7000097
:1007500070470000EFF3108072B600BFFEE70000A4
:10076000B0B5044600F0F4F8054640F20000C2F2CD
:1007700000000078611C18BF044400BF00F0E8F8D6
:10078000401BA042FAD3B0BD7047000043F61441AD
:10079000C4F201010A68024214BF08607047FFF703
:1007A000F3BF00002DE9F04F83B000F1200200F10B
:1007B0003E4741F60005009207F1FF77C4F20205BB
:1007C00007224FEAB726A84208BF062200254FF0AD
:1007D00000084FF00009062E38BF4FEAB7220192F9
:1007E0000AE000BF09F1010908F10208B9F1100F90
:1007F00005F1040500F0A2800F68012202FA09FE4B
:1008000017EA0E0AEED0D1F804C003220CF0030759
:100810007E1E02FA08F4012E6FEA040B12D88468D7
:10082000CE6804EA0B0406FA08F634438460446890
:1008300024EA0E06CCF3001404FA09F426434660B9
:1008400004E000BF032F01D103271EE0C6688C68B7
:1008500006EA0B0604FA08F42643022FC66014D1F8
:100860006FF00302009E02EA590756F807C005F030
:100870001C040F220B69A2402CEA0202A3401A4377
:10088000F251D1F804C00CF00307026807FA08F32C
:1008900002EA0B021A431CF4403F0260A2D000227D
:1008A00043F644030292C4F202031A6843F600447A
:1008B00042F480421A601A68C4F2010402F48042D1
:1008C0000292029A29F003024FF6084C2244CFF616
:1008D000FF7C52F80C3005F00C070F26BE40B343E6
:1008E000019E06FA07F73B4342F80C30A2684B68BA
:1008F00042EA0A0743F60C4CDE0258BF22EA0A0716
:10090000A760C4F2010CDCF800209E0242EA0A074C
:1009100058BF22EA0A07CCF8007062689E0342EAD8
:100920000A0758BF22EA0A0767602268DB0342EA27
:100930000A0758BF22EA0A07276053E703B0BDE859
:10094000F08F0000002A08BF090481617047000091
:1009500040F21460C2F2000000687047002804BF33
:1009600001207047F0B581B0044690F83D0028B9E9
:10097000002084F83C00204600F046FB242084F848
:100980003D002068016821F001010160016841F427
:1009900000410160016821F40041016001F036F876
:1009A000636848F2A16CC0F2010C40F60011C0F27D
:1009B0003D0163453CBF48F28041C0F21E018842C0
:1009C00002D2012001B0F0BD4DF68361C4F21B31AB
:1009D000A0FB01122168970CD1F804E04FF4967641
:1009E0002EF03F0545EA92454D60774348F63816AC
:1009F0000D6AC0F24106A7FB067625F03F07634566
:100A000038BF960C721C3A430A62CA6948F2A06663
:100A10004CF6FF77C0F20106B34222EA07020BD878
:100A200001385B00B0FBF3F001306FF31F30042896
:100A300098BF04201BE000BFA768013857B11927F1
:100A40007B43B0FBF3F001306FF31F3070B100F562
:100A5000804007E003EB4303B0FBF3F001306FF39A
:100A60001F3018B100F5004001E000BF0120104325
:100A7000C8610868D4E9072320F0C0001043184378
:100A80000860886848F2FF3204F10C0790438CCF6D
:100A900018431043A6698860C86820F0FF003843F7
:100AA0003043C860086840F0010008600020202141
:100AB000206484F83D10206384F83E0001B0F0BD4E
:100AC0002DE9F04784B0984617460E460446FFF7D6
:100AD0003FFF94F83D10202923D105462068816905
:100AE000890719D5FFF734FF401B1928F6D90020D4
:100AF0002021206384F83D1084F83E00206C04F12E
:100B00003C0940F0200020640220002189F80010F8
:100B100004B0BDE8F08700BFA14619F83C1F0129C9
:100B200004D1022004B0BDE8F08700BF012289F89B
:100B300000200368DDE90D1A0C9ADB0703D1036876
:100B400043F001030360036823F400630360222081
:100B500084F83D00402084F83E000020206462625A
:100B60006185608D314620850020CFF6FF70E06200
:100B700020463A464346CDE900A501F075FB18B181
:100B8000012004B0BDE8F087208D08B3022813D0FF
:100B9000012835D121680A6822F480620A600022A7
:100BA00003924A6903928A690392039A0A6842F49B
:100BB00000720A602CE000BF21680A6822F480629B
:100BC0000A600A6842F400620A60002203921AE096
:100BD0000020039020684169039181690391039982
:100BE000016841F400710160202084F83D0000207C
:100BF00084F83E00002189F8001004B0BDE8F087B9
:100C00000021039121684A6903928969039103993C
:100C10000AF1010680B2032818D8022842D0012820
:100C200056D1BAF1000F00F0AB802068014651F8B0
:100C3000142F520600F1A8800868C00600F1E28077
:100C4000FFF786FE401B5045EFD9D0E0BAF1000F08
:100C500010D000BF2068014651F8142F52060ED460
:100C60000868C00600F1CE80FFF772FE401B5045B9
:100C7000F0D9BCE020684169490640F1B1800069C3
:100C8000616A0870606A2268411C208D61620138C7
:100C90002085638D013B638553695B0740F180804C
:100CA000106973E020684169490747D4002E59D084
:100CB000BAF1000F00F09980FFF74AFE401B504543
:100CC00000F29580206841694907F5D536E000BFFC
:100CD0002068416949070FD4002E65D0BAF1000F92
:100CE00000F08380FFF734FE401B504500F27F8008
:100CF000206841694907F5D5016821F480610160E8
:100D00000069616A0870606A218D01300139606292
:100D100021852068618D01396185416949070DD4BC
:100D2000002E4FD0BAF1000F5FD0FFF711FE401B2D
:100D300050455CD8206841694907F6D5016841F4FF
:100D4000007101600069616A0870606A2268411C74
:100D50006162218D01392185618D013961851169BA
:100D6000417014E041694907E8D4416949075CBF13
:100D700041695FEA4171E1D441694907F2D5DDE794
:100D80002068416949062BD50069616A0870606A6C
:100D9000218D01306062481E2085618D0139618599
:100DA00001047FF437AF1FE741694907A4D44169C3
:100DB00049075CBF41695FEA41719DD441694907B8
:100DC000F2D599E741694907B8D4416949075CBF41
:100DD00041695FEA4171B1D441694907F2D5ADE794
:100DE00050F8141FC90601460CD4FFF7B1FD0020CE
:100DF0002021206384F83D1084F83E00206C40F0F0
:100E000020000AE06FF0100008600020202120631D
:100E100084F83D1084F83E00206C206401200021FD
:100E200089F8001004B0BDE8F08700002DE9F04318
:100E300083B0994616460F460446FFF789FD94F89D
:100E40003D1020291ED1054620688169890715D5E6
:100E5000FFF77EFD401B1928F6D9002020212063D2
:100E600084F83D1084F83E00216C41F0200121649B
:100E700084F83C00022003B0BDE8F08394F83C10F5
:100E8000012903D1022003B0BDE8F083012284F8D8
:100E90003C200368DDE90B180A9ADB0703D10368DD
:100EA00043F001030360036823F40063036021201F
:100EB00084F83D00402084F83E00002020646262F7
:100EC0006185608D394620850020CFF6FF70E06295
:100ED000204632464B46CDE9008501F053FB18B160
:100EE000012003B0BDE8F083208D002850D0206899
:100EF00008F10106014651F8142F12062CD49EB1B8
:100F0000B8F1000F5AD000BF086840055ED4FFF763
:100F10001FFD401B404556D82068014651F8142F4C
:100F20001206F1D518E000BF0A6852054ED40A68CF
:100F3000120611D40A68520548D40A6812060BD466
:100F40000A68520542D40A68120605D40A68520596
:100F50003CD40A681206E7D5626A114611F8013BD3
:100F60000361238D6162591E2185678D013F67856D
:100F700047697F070AD50F0408D051780161911C99
:100F80006162991E2185628D013A62850904B1D1A1
:100F9000204641462A4601F02DFC38BB20680168F6
:100FA00041F400710160202084F83D00002084F8A5
:100FB0003E0084F83C0003B0BDE8F08308684005BB
:100FC00004D4FFF7C5FC202004E000BF6FF480606C
:100FD0000860042000212022216384F83D2084F849
:100FE0003E10226C1043206484F83C10206C0428CE
:100FF0007FF476AF2068016841F400710160012040
:1010000003B0BDE8F0830000B0B586B045F2004102
:101010000068C4F20001002488420594CDE903442D
:101020000294019402D006B0B0BD00BF43F6300573
:101030000094C4F20205286840F002002860286885
:1010400000F00200009000984FF410700190122000
:10105000CDE90204032004900420059001F5D83066
:1010600001A9FFF79FFB0094286940F40010286154
:10107000286900F400100090009806B0B0BD000090
:1010800040F2000040F21461C2F20000C2F200011E
:1010900000780A68104408607047000080B543F685
:1010A0000040C4F20200016841F40071016001686F
:1010B00041F480610160016841F4807101600320A6
:1010C00000F074F8002000F005F800F027F8002088
:1010D00080BD000070B540F20006C2F2000640F28A
:1010E00008013278C2F200014FF47A730968B3FB49
:1010F000F2F20446B1FBF2F1084600F0EFFE0F2CCD
:101100004FF0010508D838B94FF0FF3021460022D2
:10111000002500F01FF87460284670BD82B00020E2
:1011200043F640010190C4F202014A6842F4804251
:101130004A604A6802F480420192019A009008686D
:1011400040F080500860086800F0805000900098DF
:1011500002B0704710B54EF60C5CCEF2000CDCF815
:101160000030C3F3022E8EF00704042C28BF0424A1
:10117000BEF103034FF0FF3E0EFA04F438BF002324
:10118000A14399400EFA03F39A43114300F00F0272
:1011900000F160430901043A03F564436244002806
:1011A00048BF02F10C03197010BD00004EF60C513F
:1011B000CEF200010A684FF6FF031A4060F30A22DC
:1011C00042F0806040F0FD700860704701220168C5
:1011D000C0F80025002280F8F424886940F00060FF
:1011E0008861486D40F0805040F0030200204A655D
:1011F00070470000002804BF012070472DE9F04F20
:101200008BB08246056890F8BD0428B900208AF8A2
:10121000BC04504600F0D0F803208AF8BD04E86B07
:10122000C0055CBF0020CAF81000DAF8000002F028
:1012300043F9DAF800000AF120090A90DAE90B64B0
:10124000DAF834000AF1040E99E880039EE82E587B
:10125000CDE9084004A880E880030A988DE820586A
:10126000079601F0E7FD002840F08880DAF80000DA
:101270000021002502F028F9DAF8041000295CD0DA
:101280000AF13C004FF0010C0022002302EBC202E5
:1012900000EB820700F82230DAB201333A81DAB289
:1012A000914287F801C03D71C7E90355BD61EDD892
:1012B0000AF51F7000220025002300BF05EBC507BB
:1012C00043F00105ECB200EB8706A142727000F812
:1012D00027303271C6E90322B2612ED904EBC4076C
:1012E00000F8275043F00205ECB200EB8706A1425C
:1012F00072703271C6E90322B2611ED904EBC407D1
:1013000000F8275043F00305ECB200EB8706A1423A
:1013100072703271C6E90322B2610ED904EBC407C0
:10132000043300F82750DDB200EB8706A942727043
:101330003271C6E90322B261C0D8DAF80800DAF8DF
:1013400000200A90DAE90C40DAE905650AF11C0E82
:10135000DAE903379EE80058DAE90A89CDE908405E
:1013600002A880E8205810460A9ACDE90076CDF808
:101370001880CDF81C9001F05DFE38B102208AF88B
:10138000BD0401200BB0BDE8F08F00BF00208AF83B
:10139000380001208AF8BD04DAF82400012802D1BF
:1013A0005046FFF713FFDAF8000001F033FE00208B
:1013B0000BB0BDE8F08F0000F0B59DB004460020F2
:1013C0001C90CDE91A00CDE9180001A8043058217D
:1013D000FFF7CBF82068B0F1A04F01D01DB0F0BDF1
:1013E0004FF48070019001A800F03EF8002818BF6B
:1013F000FFF7B0F9002743F630060097C4F2020663
:101400003068002440F0010030603068C4F202040B
:1014100000F00100009000984FF4E850189002206E
:10142000CDE9190703201B900A2018AD1C90204617
:101430002946FFF7B7F94FF40070CDE918072046A9
:1014400029461A97FFF7AEF9706840F08000706087
:101450000097706940F480407061706900F48040CA
:10146000009000981DB0F0BD2DE9F04381B0044616
:10147000006843F68C06C107C4F2020604D14FF09F
:10148000000981070CD415E03168A26B21F0C0611E
:1014900011433160B2FA82F14FEA5119810709D53F
:1014A0003168E26B21F0C05111433160002A08BF5E
:1014B0004FF00109410705D44FF00008010712D48D
:1014C00020E000BF3168226B21F4401111433160EC
:1014D000B2FA82F14FEA5118B2F5801F08BF4FF0FF
:1014E000010901070ED53168626B21F440011143F7
:1014F000B2F5800F316008BF4FF00109002A08BF24
:101500004FF0010881065AD50020009056F84C0C87
:1015100047F2000740F0805046F84C0C56F84C0C4F
:10152000C4F2000700F0805000900098386840F442
:1015300080703860FFF70CFA054600BF3868C005B8
:1015400006D4FFF705FA401B0228F7D990E100BF47
:1015500056F81C0C10F4407017D0216C01F4407147
:10156000884212D056F81C0C40F64061C4F2472164
:10157000012220F440700A6000220A6046F81C0C28
:1015800056F81C0CC00740F07B812068216C56F88F
:10159000842C4FF6FF4701F4407322F4F812C0F692
:1015A000FF770F40B3F5407F08BF3A4346F8842CDD
:1015B00056F81C2C6FF31F31114346F81C1CC10652
:1015C00010D4010619D441061FD4C10525D48105C4
:1015D00030D4410536D4B9F1010F18BFB0F5006F12
:1015E0003CD062E094F8580040F64061C4F24721D4
:1015F000C1F8A00320680106E5D5B168E26C21F4CA
:1016000040011143B1604106DFD5B168A26C21F001
:1016100080611143B160C105D9D5B168626D21F017
:1016200000611143B160B2F1006F08BF4FF00108D3
:101630008105CED5B168626C21F080511143B16053
:101640004105C8D5B268216D22F000520A43B0F5B9
:10165000006FB26018BFB1F1005F23D140F268099A
:10166000C4F247290020C9F80000FFF771F90546C8
:1016700056F88C0C000105D5FFF76AF9401B0228CB
:10168000F6D9F5E02068C10702D0A16B00296FD020
:10169000810702D5E16B00296AD0410700F17D8006
:1016A0007FE000BFB9F1010FD8D0B8F1000F4FF0C3
:1016B000000000F0DE806827C4F24727B860FFF71B
:1016C00047F9054656F88C0C800005D5FFF740F920
:1016D000401B0228F6D9CBE02068410701D5216BD9
:1016E00019B101071AD5616BC1B956F8041CD4E9C8
:1016F000062301F44031656A114341EA831141EA4E
:101700000561D4F82CC046F8041C31686FF0FF0264
:1017100021F4F85102EB0C2211433160C00516D5BB
:10172000606DB0F1006F12D156F8040C226AD4E952
:10173000061300F07060D2034FF6FF75AA4308430A
:10174000A2F5803240EA8310104346F8040C0120D1
:10175000B860FFF7FDF8044656F88C0C800000F1E5
:101760008B80FFF7F5F8001B0328F5D380E000BF5E
:1017700056F8081C56F8082CD4E9013501F440311C
:1017800002F0706219436769114341EA851141EA29
:10179000077146F8081C410703D5216BB1F5801F7E
:1017A00005D001071FD5616BB1F5800F1BD156F82D
:1017B000081C56F8082CD4E9013701F4403102F036
:1017C000E04219432569114341EA871141EA056165
:1017D000D4F828C046F8081C3168ACF1010221F0A9
:1017E0001F011143316041051FD5216DB1F1005F2B
:1017F0001BD1271D56F808CC56F8082CA8CFFF039C
:101800004FF6FF7127EA01014FF0C06702F0E04296
:1018100007EA4C2707F100771A433A43A1F58031D4
:1018200042EA8512114346F8081C000510D5271D11
:101830008FCF40EA8110D1034FF6FF729143A1F59B
:10184000803140EA0360084340EA077046F8080C1C
:101850000120C9F80000FFF77BF8054656F88C0C0C
:1018600000013FF522AFFFF773F8401B0228F5D9BE
:10187000032001B0BDE8F083002001B0BDE8F08393
:10188000FFF766F8054641F2883700BF56F81C0C92
:1018900080073FF57AAEFFF75BF8401BB8424FF088
:1018A0000300F3D9E5E70000002804BF01207047DA
:1018B0002DE9F04143F60808C4F202080446D8F8BE
:1018C000F8030D4600F00F00884207D288F8F8535D
:1018D000D8F8F80300F00F00A84277D120688107FC
:1018E00017D5410705D5D8F8001041F4E051C8F8E4
:1018F0000010010705D5D8F8001041F46041C8F880
:101900000010D8F80010A26821F0F0011143C8F8C7
:101910000010C00740D1D8F8F80300F00F00A8422B
:1019200007D988F8F853D8F8F80300F00F00A84258
:101930004CD12068410707D5D8F80010E26821F49F
:10194000E0511143C8F80010000708D5D8F800008E
:10195000216920F4604040EAC100C8F8000000F0AE
:101960007DF8D8F8001043F6EE42C1F30311C0F63B
:101970000002515C40F2080220FA01F140F204003A
:10198000C2F200000068C2F200021160FFF7A2FB81
:101990000020BDE8F08100BF6068811E022907D2E7
:1019A00058F8081C89015CBF0120BDE8F08111E0F6
:1019B000012807D158F8081C89035CBF0120BDE845
:1019C000F08107E058F8081C890703D40120BDE81E
:1019D000F08100BFD8F8001021F003010843C8F8D7
:1019E0000000FEF7B5FF064641F28837D8F8000040
:1019F000616800F00C00B0EB810F8CD0FEF7A8FFFF
:101A0000801BB842F2D90320BDE8F08140F2080003
:101A100043F60801C2F20000C4F20201006809683E
:101A200043F6FE42C1F38221C0F60002515CC84079
:101A30007047000040F2080043F60801C2F20000BF
:101A4000C4F202010068096843F6FE42C1F3423164
:101A5000C0F60002515CC8407047000010B543F664
:101A60000404C4F202046068C0F3810142F2004041
:101A7000C0F2F400DFE801F04202081841F2002051
:101A8000C0F27A0010BD00BF216801F03F0221685A
:101A900023684902C3F3881116D4A1FB0001002377
:101AA000FEF71EFC17E000BF216801F03F0221682D
:101AB00023684902C3F3881114D4A1FB0001002359
:101AC000FEF70EFC15E000BF41F20020C0F27A00E4
:101AD0004843B0FBF2F021680222C1F3014102EB5E
:101AE000410109E041F20020C0F27A004843B0FB16
:101AF000F2F02168C1F30271B0FBF1F010BD0000FB
:101B0000002804BF012070472DE9F04182B004464F
:101B1000007843F60006C007C4F202060CD0B06895
:101B200000F00C00042840F089803068800303D561
:101B30006068002800F050812078800723D5B068C5
:101B400010F00C0F11D0B06800F00C00082802D182
:101B50007068400209D5B06800F00C000C2840F015
:101B60009F807068400200F19B803068800703D539
:101B7000E068012840F030813068216920F0F800E9
:101B800040EAC10030602078000713D42078400775
:101B90002AD4A569002D00F01A81B06800F00C006D
:101BA000082840F0AB80012D40F0E880012002B011
:101BB000BDE8F0816069002840F20000C4F24720CF
:101BC00000F088800121C0F8801EFEF7C1FE0546A6
:101BD000706F8007DAD4FEF7BBFE401B0228F7D9EE
:101BE000032002B0BDE8F081306C5FEAC0080AD47F
:101BF00000200190306C40F080503064306C00F078
:101C000080500190019847F20007C4F2000738683D
:101C1000C00537D4386840F480703860FEF798FE0D
:101C2000054600BF3868C0052CD4FEF791FE401B66
:101C30000228F7D9032002B0BDE8F081B06800F0B7
:101C40000C00082803D1706840023FF56EAFB06801
:101C500000F00C000C2803D1706840023FF565AF1E
:101C600061683068B1F5803F07D0B1F5A02F40F032
:101C7000CB8040F480203060306840F480303060A9
:101C8000CBE000BFA168306F012905D0052957D1ED
:101C900040F004003067306F40F00100306759E0D9
:101CA000E068002800F09C800020C4F24720012159
:101CB0000160FEF74DFE0546306880073FF55CAFDA
:101CC000FEF746FE401B02284FF00300F4D902B095
:101CD000BDE8F0810021C0F8801EFEF739FE054600
:101CE000706F80077FF552AFFEF732FE401B02286F
:101CF000F6D9032002B0BDE8F08100BF0027C4F28E
:101D0000472700203866FEF723FE022D05460BD13B
:101D10003068800140F19280FEF71AFE401B0228D5
:101D20004FF00300F4D9D2E7306880014FD5FEF7B9
:101D30000FFE401B02284FF00300F5D9C7E700BF94
:101D400020F001003067306F002920F00400306778
:101D500000F09880FEF7FCFD054641F2883700BF91
:101D6000306F800700F1A080FEF7F2FD401BB84203
:101D7000F6D9032002B0BDE8F08100BF7068E169C8
:101D800000F480028A4227D1216A00F03F028A4291
:101D900022D147F6C071626A0140B1EB821F1BD1AC
:101DA000A16A4FF6FF73C903994300F44032A1F5CD
:101DB00080318A4210D1E16A00F07062B2EB016FAB
:101DC0000AD1216B00F0E040B0EB017F04D100208C
:101DD00002B0BDE8F08100BF012002B0BDE8F08193
:101DE0000020C4F2472000210160FEF7B1FD054646
:101DF000306880077FF5C7AEFEF7AAFD401B0228BA
:101E00004FF00300F4D962E720F48030306030688E
:101E1000002920F48020306050D0FEF799FD05465F
:101E2000306880033FF588AEFEF792FD401B6428C2
:101E3000F6D9032002B0BDE8F08100BF04F11C0513
:101E40002FCD246B084340EA8210D9034FF6FF726E
:101E50009143A1F5803140EA0560084340EA0470EF
:101E6000706001203866FEF773FD0446306880011B
:101E7000ADD4FEF76DFD001B02284FF00300F5D92D
:101E800025E700BFFEF764FD054641F2883700BF35
:101E9000306F800708D5FEF75BFD401BB8424FF05E
:101EA0000300F5D913E700BFB8F1000F3FF571AE9D
:101EB000306C20F0805030646BE600BFFEF748FDC8
:101EC000054600BF306880037FF536AEFEF740FD63
:101ED000401B64284FF00300F4D9F8E6411E0020AF
:101EE000B0EB116F1CBF012070474EF21002CEF212
:101EF000000251604EF62351CEF20001F0230B7028
:101F00000721906011607047002804BF01207047CE
:101F100010B5044690F83D0028B9002084F83C0034
:101F2000204600F021F8242084F83D002068C16894
:101F300021F40051C160204600F008FF20680169CB
:101F400021F490410161416921F02A014161C16898
:101F500041F40051C16000202021206484F83D102C
:101F600084F83E1010BD000080B586B044F6000134
:101F70000068C4F20001002288420592CDE90322E4
:101F80000292019202D006B080BD00BF43F630003D
:101F90000092C4F20200036943F4802303610369E1
:101FA00003F480230093009B0092036843F008032E
:101FB0000360006800F00800009000984FF4407043
:101FC00001900220CDE90202032004900720059031
:101FD00001F5E23001A9FEF7E5FB06B080BD000087
:101FE0002DE9F04381B0044690F83D0020280DD142
:101FF0000F4600294FF0010018BF002A02D101B09E
:10200000BDE8F08394F83C00012803D1022001B020
:10201000BDE8F083012084F83C00002020642120EA
:102020001D4684F83D001646FEF792FCA684E68421
:10203000A1680646B1F5805F03D12069002800F051
:102040000D81B8460027002084F83C00E18C206810
:10205000002900F08F8005F101090CE0B8F1000FB4
:1020600028D018F8011B4160E18C0139E184E18C32
:10207000002900F07F8001680906EFD4B9F1000F54
:102080000AD0FDB1FEF764FC801BA8421AD8206874
:1020900001680906F6D5E1E701680906DED40168A2
:1020A00009065CBF01685FEA0161D7D401680906CF
:1020B000F2D5D3E737F8021B4FF000086FF35F212A
:1020C000D1E700BF206850E8030F216820F4D070EA
:1020D00041E80302BAB3206850E8030F216820F4F6
:1020E000D07041E8030272B3206850E8030F216802
:1020F00020F4D07041E803022AB3206850E8030FAF
:10210000216820F4D07041E80302002ADAD11AE0F5
:10211000206850E8050F216820F0010041E8050221
:10212000DAB1206850E8050F216820F0010041E88D
:10213000050292B1206850E8050F216820F00100E7
:1021400041E805024AB1206850E8050F216820F0F7
:10215000010041E80502002ADAD1202084F83D0080
:1021600084F83E00002084F83C00032001B0BDE864
:10217000F08300BF016849060FD4F5B1691C17D17F
:102180000168490609D4016849065CBF01685FEA35
:10219000416102D401684906F2D5202084F83D004F
:1021A000002001B0BDE8F083206800684006F4D448
:1021B000FEF7CEFB801BA842F6D9206850E8030F3B
:1021C000216820F4D07041E80302E2B3206850E8AF
:1021D000030F216820F4D07041E803029AB320680D
:1021E00050E8030F216820F4D07041E8030252B395
:1021F000206850E8030F216820F4D07041E8030202
:10220000002ADAD11FE000BF206850E8050F2168DE
:1022100020F0010041E80502002A9ED0206850E825
:10222000050F216820F0010041E80502002A94D042
:10223000206850E8050F216820F0010041E8050200
:10224000002A3FF48AAF206850E8050F216820F08B
:10225000010041E80502002AD6D17EE74FF00008D0
:10226000F1E60000FEE700002DE9F04383B00446EC
:1022700000680B9D0A9E0768994647F480670760CF
:102280000768904647F48073036043690F46DA0796
:102290001DD1711C11D0002E00F03681FEF758FBC5
:1022A000401BB04200F2328120684169C907F5D075
:1022B0000DE000BF4169C90709D14169C90706D1CD
:1022C0004169C90704BF41695FEAC171F2D007F0F3
:1022D000FE0707614169890736D44169721C1CD029
:1022E000490510D4002E00F0398100BFFEF730FB05
:1022F000401BB04200F2348120684169890723D431
:1023000041694905F2D5016841F4007101606FF43B
:1023100080614161042024E141694905F3D44169A8
:10232000890711D441694905EDD4416989070BD466
:1023300041694905E7D44169890705D441694905DF
:10234000E1D441698907E7D500210291014651F89E
:10235000142F02924A680292029A0A68120621D445
:10236000002E00F0AD80721C40F086800A68520595
:1023700000F1AE800A68120614D40A68520500F112
:10238000A7800A6812060DD40A68520500F1A080E1
:102390000A68120606D40A68520500F199800A6894
:1023A0001206E3D5B9F1010F25D04FEA18210161DA
:1023B000014651F8142F12061DD4002E00F0808023
:1023C000721C78D10A68520500F182800A681206F0
:1023D00011D40A6852057BD40A6812060BD40A6825
:1023E000520575D40A68120605D40A6852056FD4DE
:1023F0000A681206E6D55FFA88F10161014651F8D4
:10240000142F12061BD4002E5AD0721C43D10A6816
:1024100052055DD40A68120611D40A68520557D4D1
:102420000A6812060BD40A68520551D40A681206CB
:1024300005D40A6852054BD40A681206E7D501682C
:10244000002241F48071016020464FF001113346B3
:10245000009500F023FA002870D02068006864E03E
:10246000FEF776FA401BB0422FD82068014651F89B
:10247000142F12063FF596AF08684005F0D527E007
:10248000FEF766FA401BB0421FD82068014651F89B
:10249000142F1206D3D408684005F1D518E000BF08
:1024A000FEF756FA401BB0420FD82068014651F89B
:1024B000142F12069FD408684005F1D508E000BF2C
:1024C0000868400504D4FEF743FA202004E000BF6A
:1024D0006FF480600860042000212022216384F8CA
:1024E0003D2084F83E10226C1043206484F83C1098
:1024F000206C042841D12068016841F4007101601A
:10250000012003B0BDE8F083FEF722FA002020216D
:10251000206384F83D1084F83E00216C41F02001D6
:102520002164216884F83C000868C00544BF4FF46A
:1025300000702064032003B0BDE8F08347F0010C75
:1025400027680221C0F20101204632462B46C7F817
:1025500010C003B0BDE8F04300F044BAFEF7F8F94C
:10256000202000212022216384F83D2084F83E10A1
:10257000226C1043206484F83C10012003B0BDE8B5
:10258000F08300002DE9F04381B0044600689046D6
:102590000268099D42F4807202604269089E994671
:1025A000D2070F461DD1711C11D0002E00F0D08033
:1025B000FEF7CEF9401BB04200F2CC8020684169A2
:1025C000C907F5D00DE000BF4169C90709D14169CC
:1025D000C90706D14169C90704BF41695FEAC171F2
:1025E000F2D007F0FE0101614169890736D44169E3
:1025F000721C1CD0490510D4002E00F0E78000BFEB
:10260000FEF7A6F9401BB04200F2E2802068416963
:10261000890723D441694905F2D5016841F4007165
:1026200001606FF4806141610420D2E04169490595
:10263000F3D44169890711D441694905EDD4416951
:1026400089070BD441694905E7D44169890705D455
:1026500041694905E1D441698907E7D50021009125
:10266000014651F8142F00924A680092009A0A68B5
:1026700012061ED4002E00F08580721C53D10A6809
:10268000520500F187800A68120612D40A685205C2
:1026900000F180800A6812060BD40A68520579D4CA
:1026A0000A68120605D40A68520573D40A6812062D
:1026B000E5D5B9F1010F23D04FEA18210161014698
:1026C00051F8142F12061BD4002E5BD0721C3AD185
:1026D0000A6852055ED40A68120611D40A685205C7
:1026E00058D40A6812060BD40A68520552D40A68F4
:1026F000120605D40A6852054CD40A681206E7D5BA
:102700005FFA88F10161002001B0BDE8F08300BFED
:10271000FEF71EF9401BB04239D82068014651F837
:10272000142F1206C5D408684005F1D532E000BF69
:10273000FEF70EF9401BB04229D82068014651F837
:10274000142F1206DCD408684005F1D522E000BF42
:10275000FEF7FEF800202021206384F83D1084F865
:102760003E00216C41F020012164216884F83C0086
:102770000868C00544BF4FF400702064032001B016
:10278000BDE8F0830868400504D4FEF7E1F8202096
:1027900004E000BF6FF48060086004200021202264
:1027A000216384F83D2084F83E10226C104320649D
:1027B00084F83C10206C042817D12068016841F48B
:1027C00000710160012001B0BDE8F083FEF7C0F8A0
:1027D000202000212022216384F83D2084F83E102F
:1027E000226C1043206484F83C10012001B0BDE845
:1027F000F083000070B50368044653F8140F4007D7
:1028000037D40E46F1B1701C24D100BF18684005C2
:1028100032D4186840072CD4186840052CD41868A6
:10282000400726D41868400526D41868400720D4ED
:102830001868400520D4186840074FF0000048BFD2
:1028400070BDE3E71868400516D4FEF781F8202034
:1028500016E000BF154600BF186840050CD4FEF70F
:1028600077F8401BB042F2D8236853F8140F4007A2
:10287000F2D5002070BD00BF6FF4806018600420A6
:1028800000212022216384F83D2084F83E10226C30
:1028900010432064012084F83C1070BD2DE9F04104
:1028A00005461446DDF8188001F47F002A681E46AC
:1028B000B0F5803F8FB23FD150693840C01BB0FAAD
:1028C00080F04009A04277D1701C2BD0002E77D029
:1028D000FEF73EF8A0EB0800B04273D828684069C4
:1028E0003840C01BB0FA80F04009A042F0D063E04D
:1028F00050693840C01BB0FA80F04009A0425BD15B
:1029000050693840C01BB0FA80F04009A04253D152
:1029100050693840C01BB0FA80F04009A0424FF027
:1029200000005DD150693840C01BB0FA80F040090A
:10293000A042DDD040E000BF90693840C01BB0FA33
:1029400080F04009A04237D1701C2DD0C6B300BF23
:10295000FDF7FEFFA0EB0800B04233D8286880697D
:102960003840C01BB0FA80F04009A042F0D023E00C
:1029700090693840C01BB0FA80F04009A0421BD1DA
:1029800090693840C01BB0FA80F04009A04213D1D2
:1029900090693840C01BB0FA80F04009A0424FF067
:1029A000000018BFBDE8F08190693840C01BB0FA44
:1029B00080F04009A042DBD00020BDE8F08100BFDC
:1029C000FDF7C6FF00202021286385F83D1085F81B
:1029D0003E00296C41F02001296485F83C0001206B
:1029E000BDE8F081F0B581B0044600681D4643693A
:1029F0008FB203EA0701B94202D1002001B0F0BD55
:102A00004169164601321AD049050ED4A6B300BF5B
:102A1000FDF79EFF401BB04230D820684169394025
:102A2000B942EAD041694905F2D5016841F4007123
:102A300001606FF480614161042020E04169490533
:102A4000F3D441693940B942D7D041694905ECD442
:102A500041693940B942D0D041694905E5D441695D
:102A60003940B942C9D041694905DED4416939408C
:102A7000B942E3D1C1E700BFFDF76AFF2020002182
:102A80002022216384F83D2084F83E10226C1043FC
:102A9000206484F83C10012001B0F0BD2DE9F0471E
:102AA00086B0002743F630000597CDE90377CDE9DE
:102AB00001770097C4F20200016841F6000A41F074
:102AC000040101600168C4F2020A01F004010091EE
:102AD000009900970168AAF5A05541F080010160B6
:102AE0000168002201F080010091009900970168BF
:102AF00044F2810841F002010160016801F0020125
:102B0000009100990097016841F008010160016897
:102B100001F00801009100990097016841F040011F
:102B20000160016801F0400100910099009701687F
:102B300041F001010160006844F2810100F00100F0
:102B4000009000982846FDF7FDFE504640210022E7
:102B50004FF04009FDF7F6FE4FF4005001904FF49E
:102B6000881001AECDE90207AAF580503146FDF785
:102B700019FE012428463146CDF80480CDE90247EC
:102B80000497FDF70FFE50463146CDE90194CDE99B
:102B90000377FDF707FE8020CDE901075046314657
:102BA0000397FDF7FFFD06B0BDE8F08780B540F262
:102BB000700045F20041C2F20000C4F2000148F288
:102BC000A06200234FF4804CC0F2010280E80E00A6
:102BD000C0E9033CC0E90533C0E90733FDF7BEFE99
:102BE000002808BF80BDEFF3108072B6FEE700003A
:102BF00080B540F2D05044F60001C2F20000C4F2A9
:102C0000000100234FF00C0C4FF4164280E80E0038
:102C1000C0E90333C0E905C3C361FFF775F90028B4
:102C200008BF80BDEFF3108072B600BFFEE7000062
:102C300080B540F2C400C2F200004FF0A04106226D
:102C4000C0E90012022100220123C0E90312C0E9F9
:102C50000613C0E90822C0E90B32FEF7CBFA0028C0
:102C600008BF80BDEFF3108072B600BFFEE7000022
:102C7000FEE70000FEE7000070470000704700001C
:102C8000FEF7FEB970B594B007AC20463421FDF7CD
:102C90006CFC002543F640000695CDE90455CDE9CE
:102CA00002550195C4F202000168022641F08051EC
:102CB0000160006800F080500190019847F2000028
:102CC0000195C4F20000016841F4404101600068D0
:102CD00000F4404001900198012007904FF4A0209B
:102CE00008904FF480000E9004200F90A820CDE9AA
:102CF00010060720CDE9120620460D96FEF700FFCC
:102D000020B1EFF3108072B6FEE700BF0F20CDE9CF
:102D100002064FF4A05005904FF48050069002A890
:102D200005210495FEF7C0FD20B1EFF3108072B6C7
:102D3000FEE700BF14B070BD4EF68850CEF2000022
:102D4000016841F47001016070470000B0B50446AD
:102D5000006804F108030ECB0569194325F44055BA
:102D60002A4302616269E3691143C268194349F267
:102D70000C639A431143C1604169A26921F4407117
:102D800041F20043114340F48062C4F201039A42CD
:102D9000416103D1FEF74EFE02E000BFFEF736FEB2
:102DA000E1694FF69C7563681922C0F6FF75B1F5AD
:102DB000004FA0FB02011FD15A00DB0FFDF790FA74
:102DC00048F21F51C5F2EB11A0FB01235A0905F18E
:102DD000805302FB0300322303EBC000A0FB010180
:102DE0004FF4F87000EA111000EB0210C1F3421129
:102DF000084421688860B0BD9A009B0FFDF770FA07
:102E000048F21F51C5F2EB11A0FB01235A0902FB46
:102E10000500322303EB0010A0FB0101F02000EAC3
:102E2000511000EB0210C1F343110844216888607F
:102E3000B0BD000082B00499DDF808C0012940F659
:102E40004051C0F203016FD1826B4FF6BF7322F481
:102E500080328263C268CFF6BD731A40C260C26816
:102E60000B9B22F44012012BC26003D1C26842F4D2
:102E70008012C26000220092009A01320092009AF1
:102E80008A4200F2A9800269002A1ED4009A013207
:102E90000092009A8A4200F29F800269002A14D4AC
:102EA000009A01320092009A8A4200F295800269EB
:102EB000002A0AD4009A01320092009A8A4200F253
:102EC0008B800269B2F1FF3FD6DC002200920269DA
:102ED00042F001020261009A01320092009A8A4295
:102EE0007AD80269D2071AD0009A01320092009A69
:102EF0008A4271D80269D20711D0009A0132009239
:102F0000009A8A4268D80269D20708D0009A013232
:102F10000092009A8A425FD80269D207DBD1002171
:102F2000BCF1010F72D169E0C268089B42F0400217
:102F3000C26000220192019A01320192019A8A42F2
:102F400050D80269002A1BD4019A01320192019AD9
:102F50008A4247D80269002A12D4019A01320192AA
:102F6000019A8A423ED80269002A09D4019A0132A4
:102F70000192019A8A4235D80269B2F1FF3FDADC48
:102F800000220192026942F001020261019A0132BB
:102F90000192019A8A4225D80269D2071AD0019A71
:102FA00001320192019A8A421CD80269D20711D0DB
:102FB000019A01320192019A8A4213D80269D2071A
:102FC00008D0019A01320192019A8A420AD8026914
:102FD000D207DBD1002106E00321BCF1010F15D19E
:102FE0000CE000BF0321826B002B14BF22F480325F
:102FF00042F480328263BCF1010F07D1826842F053
:1030000006028260826842F020028260084602B0B6
:10301000704700000146D0F8000E20F00300C1F810
:10302000000ED1F8040840F002020020C1F8042884
:10303000704700002DE9F04F83B0DDF84C800E9F03
:103040000022B8F1000F00F5006BC0F80421C0F8B1
:103050000821C0F80C21C0F81021C0F81421C0F8D4
:103060001821C0F81C21C0F82021C0F82421C0F884
:103070002821C0F82C21C0F83021C0F83421C0F834
:103080003821C0F83C2105D0866B46F400168663D3
:1030900012E000BFD0F8046846F00206C0F80468E9
:1030A000866B26F400168663066846F040060660C6
:1030B000066846F0800606600026C0F8006ED0F86C
:1030C0000068012FC0F8006806D1DBF80070002B03
:1030D00018BF47F0010703E0DBF8003043F00307B7
:1030E000DDF83CE0DDF8309040F64055C0F20305D5
:1030F0000023C0F800780193019B01330193019BE9
:10310000AB4249D80369002B1BD4019B01330193C7
:10311000019BAB4240D80369002B12D4019B0133C1
:103120000193019BAB4237D80369002B09D4019B63
:1031300001330193019BAB422ED80369B3F1FF3FEA
:10314000DADC002301934FF484630361019B0133B4
:103150000193019BAB421FD803699B061AD5019BC3
:1031600001330193019BAB4216D803699B0611D52D
:10317000019B01330193019BAB420DD803699B0670
:1031800008D5019B01330193019BAB4204D803692D
:103190009B06DBD4002400E0012400230293029B61
:1031A00001330293029BAB4248D80369002B1BD426
:1031B000029B01330293029BAB423FD80369002B71
:1031C00012D4029B01330293029BAB4236D80369AF
:1031D000002B09D4029B01330293029BAB422DD8F2
:1031E0000369B3F1FF3FDADC00230293102303618C
:1031F000029B01330293029BAB421FD80369DB069B
:103200001DD5029B01330293029BAB4216D8036982
:10321000DB0614D5029B01330293029BAB420DD80F
:103220000369DB060BD5029B01330293029BAB4281
:1032300004D80369DB06DBD401E000BF01244FF0B2
:10324000000A0029CBF810A0CBF814A0CBF81CA0E2
:1032500000F004810094D0F800394FF0006202EAD7
:1032600013134FF67F354E1EC0F80039C0F810A971
:10327000C0F8085976D08B1E032B06F0030905D23F
:103280002024B9F1000F42D16CE000BF26F0030703
:1032900000244FF0904E4FF67F384FF0000C00BFE7
:1032A00000EB0C03D3F82059043F0EEAE575C3F890
:1032B0002059C3F83049C3F82889D3F840590CF194
:1032C000800C0EEAE575C3F84059C3F85049C3F8BD
:1032D0004889D3F860590EEAE575C3F86059C3F818
:1032E0007049C3F86889D3F880590EEAE575C3F8C8
:1032F0008059C3F89049C3F88889D1D1DDF84C8052
:103300000CF120044FF67F35B9F1000F2AD000F5FB
:1033100010631D594FF0904C0CEAE5751F191D51B3
:103320004FF67F3500244FF67F3EB9F1010F3C6127
:10333000C7F808E016D03B6AB9F1020F0CEAE37354
:103340003B623C63C7F828E00CD03B6C4FF09045E3
:1033500005EAE3733B6400234FF67F353B654FF688
:103360007F33BB64D0F8003BDDF83CE002EA131386
:10337000C0F8003B0023C0F8103BC0F8085BDDF844
:103380003090009C002E69D00239032906F0030C0E
:1033900004D22023BCF1000F3BD15FE026F00303F1
:1033A00000244FF090474FF67F3600214518D5F89E
:1033B000202B043B07EAE272C5F8202BC5F8304BFE
:1033C000C5F8286BD5F8402B01F1800107EAE272BD
:1033D000C5F8402BC5F8504BC5F8486BD5F8602BA5
:1033E00007EAE272C5F8602BC5F8704BC5F8686B48
:1033F000D5F8802B07EAE272C5F8802BC5F8904B10
:10340000C5F8886BD2D1009C01F12003BCF1000FFC
:1034100024D000F53062D6584FF0904707EAE676A0
:10342000D118D65000264FF67F33BCF1010F0E6144
:103430008B6013D00A6ABCF1020F07EAE2720A62DB
:103440000E638B620AD00A6C4FF0904303EAE2727B
:103450000A6400220A654FF67F328A64DBF8101096
:10346000B9F1000F21F48071CBF810106FF080419A
:10347000C0F818A0416103D1816941F01001816158
:10348000816943F60002C8F23C021143BEF1000F0D
:10349000816103D0816941F008018161B8F1010FB8
:1034A00005D1816941F0804141F0040181612046EC
:1034B00003B0BDE8F08F00000146806820F00102F3
:1034C00000208A6070470000B0B50446C06820F054
:1034D000C040E06091B1012926D1E068002540F0AC
:1034E0000050E0600120FDF73BF96069C00705F17D
:1034F000010014D1312D0546F4D310E0E068002519
:1035000040F08040E06000BF0120FDF729F96069CC
:10351000C00705F1010002D0312D0546F4D3323841
:10352000B0FA80F04009B0BD0120B0BDFEE7000058
:1035300080B584B0024601200DF10F01CDE90010E5
:1035400040F270004FF0640CC2F20000A021102382
:10355000CDF808C0FDF7B4FA002818BFFDF7FAF857
:103560009DF80F0004B080BD80B584B0034640F2E2
:1035700070004FF0640CCDE90012C2F20000A021EF
:103580001A461023CDF808C0FDF750FC04B080BDEA
:10359000AEB0FDF783FDFFF775FBFFF77FFAFFF78E
:1035A00005FBFFF725FBFFF743FB00F0F1FA0FF2F5
:1035B00034400E900FF234400F900FF238401090CC
:1035C0000FF2384011900FF2404012900FF2444039
:1035D00013900FF24840149000208DF837008DF8BA
:1035E000360002208DF8340007208DF832001920B3
:1035F0008DF831006F20ADF8580046F26850C6F6DD
:103600006C4015AD4FF00D0A0124159028468DF839
:1036100035A08DF8334000F029FA28468DF829406E
:1036200000F024FA0DF13708002041460122FFF78F
:103630009BFF284600F01AFA0DF136010120012205
:10364000FFF792FF284600F011FA0DF1350702202E
:1036500039460122FFF788FF284600F007FA0DF1EE
:103660003409032049460122FFF77EFF284600F077
:10367000FDF90DF1330B042059460122FFF774FFC9
:10368000284600F0F3F90DF132040520214601220D
:10369000FFF76AFF284600F0E9F90DF13106062030
:1036A00031460122FFF760FF284600F0DFF90720CE
:1036B000414601228DF835A0FFF756FF284600F05D
:1036C000D5F90DF1290108200122FFF74DFF284609
:1036D00000F0CCF9092039460122FFF745FF2846C2
:1036E00000F0C4F90A2049460122FFF73DFF2846B1
:1036F00000F0BCF90B2059460122FFF735FF2846A0
:1037000000F0B4F90C2021460122FFF72DFF2846D6
:1037100000F0ACF90D2031460122FFF725FF2846C5
:1037200000F0A4F90020FFF703FF8DF83700012017
:10373000FFF7FEFE8DF836000220FFF7F9FE8DF848
:1037400035000320FFF7F4FE8DF834000420FFF766
:10375000EFFE8DF833000520FFF7EAFE8DF832000A
:103760000620FFF7E5FE8DF83100284600F07EF9CF
:103770009DF834009DF833109DF832209DF83130CB
:1037800000F024FA284600F071F99DF835009DF804
:1037900036109DF8372000F05FFA284600F066F9F1
:1037A0000DF12A00C11C0991011D0891411D0791CD
:1037B000811D00F1020800F101090DF1380A06919E
:1037C00003E000BF3220FCF7CBFFDDE90810DDE9A4
:1037D000063200F05BF9404649460DF12A0200F03E
:1037E0009BF99DF82D709DF82E009DF82B109DF8EB
:1037F0002C605AF827709DF830209DF82F309DF8E6
:103800002A40CDE90007CDE90261284686A104944B
:10381000FCF7DEFD284600F029F943F61440C4F217
:1038200001000068800421D59DF834009DF8331014
:103830009DF832209DF831300D278DF8357000F05D
:10384000C5F99DF835009DF836109DF8372000F039
:1038500003FA09200DF135010122FFF785FE284604
:1038600000F004F94FF40050FCF790FF0720FFF739
:103870005FFE8DF837000820FFF75AFE8DF829000B
:103880000920FFF755FE8DF835000A20FFF750FE9E
:103890008DF834000B20FFF74BFE8DF833000C2021
:1038A000FFF746FE8DF832000D20FFF741FE02467D
:1038B0009DF834009DF833105AF820009DF83230FE
:1038C0009DF835709DF829609DF83740CDE90010CE
:1038D00028465DA18DF83120CDE902760494FCF7ED
:1038E00077FD284600F0C2F89DF82A009DF83710B1
:1038F00088427FF467AF9DF82B009DF8291088421D
:103900007FF460AF9DF82C009DF8351088427FF45D
:1039100059AF9DF82D009DF8341088427FF452AFC6
:103920009DF82E009DF8331088427FF44BAF9DF830
:103930002F009DF8321088427FF444AF9DF830008C
:103940009DF8311088427FF43DAF44F65250C0F2EA
:103950000A00CDF8570044F64140C5F241201590C9
:10396000284600F083F84FF0000B09E04FF47A701E
:10397000FCF7F6FE0BF1010BBBF1090F3FF422AF90
:103980005FEACB70F2D140F20044C4F20204204658
:1039900001210122FCF7D6FF204680210122FCF7FD
:1039A000D1FF20464FF480410122FCF7CBFF4FF4BA
:1039B0007A70FCF7D5FE204601210022FCF7C2FFF9
:1039C000204680210022FCF7BDFF20464FF48041B5
:1039D0000022FCF7B7FF0BF1010BBBF1090FCFD1B0
:1039E000F0E600BF53756E64617900004D6F6E6440
:1039F0006179000054756573646179005765646E80
:103A0000657364617900000054687572736461794C
:103A100000000000467269646179000053617475AA
:103A2000726461790000000054696D653A2032309B
:103A300025752D25752D25753B2025733B20257576
:103A40003A25753A25750A00416C61726D3A20324B
:103A50003025752D25752D25753B2025733B20259B
:103A6000753A25753A25750A0000000010B5044620
:103A7000FCF75CFD82B240F2D050C2F20000214659
:103A80006423BDE81040FEF7ABBA00002DE9F04119
:103A900084B00E460746042003A9CDE9001040F289
:103AA0007000984615466424C2F20000D02103221B
:103AB00001230294FDF704F8002818BFFCF74AFE22
:103AC0009DF80C009DF80D10040904EB840400F02F
:103AD0000F0000EB4400387008099DF80E2000EB41
:103AE000800001F00F0101EB4000307010099DF8DB
:103AF0000F3000EB800002F00F0101EB4000287056
:103B0000180900EB800003F00F0101EB400088F87A
:103B1000000004B0BDE8F08170B584B00D460646E3
:103B200003200DF10D01CDE9001040F270001446A4
:103B30004FF0640CC2F20000D02100220123CDF826
:103B400008C0FCF7BDFF002818BFFCF703FE9DF876
:103B50000F109DF80E200B0903EB830301F00F01FA
:103B600001EB4301317011099DF80D0001EB81015A
:103B700002F00F0202EB41012970010901EB810102
:103B800000F00F0000EB4100207004B070BD000099
:103B900080B584B010208DF80F0001200DF10F01C9
:103BA000CDE9001040F270004FF0640CC2F200004A
:103BB000D02107220123CDF808C0FDF737F90028EE
:103BC00018BFFCF7C7FD04B080BD000010B584B07D
:103BD0004FF0CD0C00FB0CFE4FEADE2E0EEB8E04F8
:103BE000A0EB440040EA0E108DF80C0001FB0CF035
:103BF000C00A00EB8004A1EB440141EA00108DF8FB
:103C00000D0002FB0CF0C00A00EB8001A2EB4101A9
:103C100041EA00108DF80E0003FB0CF0C00A00EB27
:103C20008001A3EB410141EA00108DF80F00042050
:103C300003A9CDE9001040F270006424C2F2000034
:103C4000D021032201230294FDF7F0F8002818BFC9
:103C5000FCF780FD04B010BD80B584B04FF0CD0CF2
:103C600000FB0CF34FEAD32E0EEB8E03A0EB4300C8
:103C700040EA0E108DF80F0001FB0CF0C00A00EBBB
:103C80008003A1EB430141EA00108DF80E0002FB16
:103C90000CF0C00A00EB8001A2EB410141EA0010E8
:103CA0008DF80D0003200DF10D01CDE9001040F25B
:103CB00070004FF0640CC2F20000D02100220123FA
:103CC000CDF808C0FDF7B2F8002818BFFCF742FD98
:103CD00004B080BDF1EE100A4FF6FF71C0F2C031A2
:103CE00020EA010040F04070E1EE100A7047000049
:103CF000000000000000010203040607080900009C
:103D00000000010203040000283D0008000000201C
:103D10001000000028020008383D000810000020B4
:103D2000080C00004802000801000000100000001C
:083D30000024F4000000000073
:04000005080001C529
:00000001FF
