:020000040800F2
:10000000200C002099020008E52400080D220008B9
:10001000E1240008C50600089D2D0008000000002E
:10002000000000000000000000000000ED240008B7
:10003000C906000800000000E9240008F1240008B7
:10004000B3020008B3020008B3020008B3020008BC
:10005000B3020008B3020008B3020008B3020008AC
:10006000B3020008B3020008D5060008B302000876
:10007000B3020008B3020008B3020008B30200088C
:10008000B3020008B3020008B3020008B30200087C
:10009000B3020008B3020008B3020008DD0600083E
:1000A000B3020008B3020008B3020008B30200085C
:1000B000B3020008B3020008B3020008B30200084C
:1000C000B3020008B3020008B3020008B30200083C
:1000D000B3020008B3020008B3020008B30200082C
:1000E000CD060008B3020008B3020008B3020008FE
:1000F000B3020008B3020008B3020008B30200080C
:10010000B3020008B3020008B3020008B3020008FB
:10011000B3020008B3020008B3020008B3020008EB
:10012000B3020008B3020008B3020008B3020008DB
:10013000B30200080000000000000000B302000845
:10014000B3020008B3020008B3020008B3020008BB
:10015000B3020008B3020008B3020008B3020008AB
:10016000B3020008B3020008B3020008B30200089B
:10017000B3020008B3020008B30200080000000048
:1001800000000000B30200080000000000000000B2
:10019000B30200080000000000000000B3020008E5
:1001A000000000000000000000000000B302000892
:1001B000B3020008B3020008B3020008B30200084B
:1001C000B302000800F002F800F057F814A696E811
:1001D000000CB244B344DA4501D100F04EF8BAE85D
:1001E0000F000FA696E83000A5EB040504EB060708
:1001F000AAEB0704A7F101074FEA15154FEA3414DB
:10020000A4F10104AC4201D300F037F813F0010F60
:1002100018BFFB1A43F0010300F001F8DBE71847B1
:10022000802C0000A02C0000103A24BF78C878C1B0
:10023000FAD8520724BF30C830C144BF04680C60EC
:1002400070470000704700000023002400250026AE
:10025000103A28BF78C1FBD8520728BF30C148BF29
:100260000B607047642900F0F780002070471FB5CD
:1002700002F0F5FD1FBD10B510BD00F0E8F9114604
:10028000FFF7F5FF02F08CFD00F006FA03B4FFF76C
:10029000F2FF03BC00F00EFA094880470948004706
:1002A000FEE7FEE7FEE7FEE7FEE7FEE7FEE7FEE726
:1002B000FEE7FEE704480549054A064B7047000083
:1002C000A9250008C501000820060020200C0020F8
:1002D000200800202008002053EA020C00F069806A
:1002E0002DE9F04B4FF00006002B1FBFB3FA83F54A
:1002F00003FA05F424FA05F65E4012BF1643B2FA7B
:1003000082F502FA05F4C5F120051EBF22FA05FCAC
:1003100044EA0C04203556EA044C4FEA144418BF52
:10032000641C4FF000084FF00009904271EB030C81
:1003300039D3002919BFB1FA81F701FA07F6B0FAEB
:1003400080F700FA07F6C7F120071EBF20FA07FC66
:1003500046EA0C062037B6FBF4FCA7EB0507103F76
:1003600007F01F0BCBF120062CFA06F60CFA0BFB5C
:1003700044BFB3460026202FA4BF5E464FF0000BBB
:100380005BEA060C08BF4FF0010B19EB0B0948EBB9
:100390000608ABFB027C06FB02CC0BFB03CCC01BAC
:1003A00071EB0C01C1E70B46024641464846BDE8E9
:1003B000F08B13B5084318BF4FF0FF300146AFF381
:1003C0000080BDE81C4070470FB41CB5074B06AA5F
:1003D0007B4469460090059800F021F900206946A9
:1003E00000F030F91CBC5DF814FB00007102000045
:1003F0002DE9F0410E460446002020622046E168C7
:10040000884730B3252805D0D4E901219047206AD8
:10041000401CF2E7E168204600278847050018D015
:10042000A5F14100192802D820354FF40067324663
:10043000294620462760FFF715FF40B1012804D068
:10044000F61D26F007060836D8E7361DD6E72846FB
:10045000DAE7206ABDE8F0812DE9F0410646002484
:1004600010687529314616A510D0AFF3008000281A
:1004700002DA404213A507E031688A0701D512A5C8
:1004800002E0490704D511A5012401E0AFF3008083
:1004900000210A2206F1240709E0B0FBF2FCB0FBC0
:1004A000F2F302FB1C00303078541846491C002837
:1004B000F3D123462A463046BDE8F04100F051B85A
:1004C000000000002D0000002B00000020000000B4
:1004D00010B5431C02E010F8011B71B18107FAD17D
:1004E0004FF0013202C88C1A8C4314EAC211F9D0C1
:1004F000C01A0A0603D0C01E10BDC01A10BD0A04DF
:1005000001D0801E10BD0902FCD0401E10BD4FF06E
:10051000000200B5134694469646203922BFA0E853
:100520000C50A0E80C50B1F12001BFF4F7AF09075F
:1005300028BFA0E80C5048BF0CC05DF804EB890050
:1005400028BF40F8042B08BF704748BF20F8022B93
:1005500011F0804F18BF00F8012B704770477047AB
:1005600070472DE9F0470D4699469246044600F142
:1005700024080168880604D5E06921F01001216093
:1005800000E00120A84201DD471B00E00027A1692F
:100590007A1902EB0900081AA0612078C00602D47B
:1005A0002046AFF30080002608E0D4E901211AF8C4
:1005B00006009047206A401C761C20624E45F4DB02
:1005C0002078C0060AD52046AFF3008006E0D4E9C3
:1005D000012130209047206A401C2062381EA7F17C
:1005E0000107F4DC07E0D4E9012118F80500904781
:1005F000206A401C2062281EA5F10105F3DC20467C
:10060000AFF300802078000602D50220BDE8F08715
:100610000120FBE701694A1C02610878704700B5B8
:100620008FB0CDE901310021059105497944CDE92B
:10063000031011466846FFF7DBFE0FB000BD000057
:10064000E5FFFFFF0A6802F8010B0A607047754674
:1006500000F02CF8AE4605006946534620F007002E
:10066000854618B020B5FFF725FEBDE820404FF0C5
:1006700000064FF000074FF000084FF0000BAC46AB
:10068000ACE8C009ACE8C009ACE8C009ACE8C009F6
:1006900021F007018D46704710B50446AFF3008086
:1006A0002046BDE81040FFF7F1BD0000004870474C
:1006B0001000002001491820ABBEFEE72600020012
:1006C00070470000FEE70000704700004FF4005044
:1006D00000F0B0BB102000F0ADBB000080B52020C2
:1006E00000F0A8FB402000F0A5FB8020BDE8804082
:1006F00000F0A0BBEFF3108072B600BFFEE7000071
:1007000070B581B00022009290F83C20012A03D1FC
:10071000022001B070BD00BFD1F800E00122BEF19F
:100720000A0F1FFA8EFC80F83C2009D34FEA4C02D6
:10073000036812FA8EF2A2F11E0403F10C0204E027
:1007400003680EEB4E0403F1100207251668A5405E
:1007500026EA050515608D68166805FA04F4344329
:1007600014604968062907D801EB81014A1F194620
:1007700051F8345F0FE000BF0C2901EB810105D86F
:10078000A1F12302194651F8305F04E0A1F14102C2
:10079000194651F82C5F1F24944025EA04040C608C
:1007A0000CFA02F20C6842F2043CC4F2010C22433F
:1007B000ACF54174A3420A6006D0002180F83C10D9
:1007C000002001B070BD00BF1221BEF1110FC1F2B7
:1007D000000118BF8E453BD1DCF800208E4522F485
:1007E0008002CCF80020DCF8002042F40002CCF8B3
:1007F0000020E2D140F20801C2F2000109684DF682
:100800008362C4F21B32A1FB0212910C01EB810145
:100810004900009100990029CFD000BF009901390B
:10082000009100990029C8D00099013900910099E0
:100830000029C2D000990139009100990029BCD04B
:1008400000990139009100990029E7D1B5E700BF6F
:10085000BEF1120FB1D1DCF8001021F40001CCF888
:100860000010DCF8001041F48001CCF80010A4E77F
:100870000068C06C70470000002804BF012070476A
:1008800010B5016C00293DD0016CC90645D4016C3E
:1008900041F202129143023142F204320164C4F285
:1008A0000102116821F440311160136890E81210C0
:1008B0002343D0F810E013604A68012422F48072C8
:1008C0004A604A68C0F6007442EA0E224A604A68EA
:1008D00022F040724A604A6842EA0C024A608A6822
:1008E00022F400628A60C2688B681A438A60826A56
:1008F0008B68A24223F070638B608B6810D123F069
:10090000405216E0044600F065F82046002161647C
:1009100084F83C10016CC906B9D5012153E000BF31
:100920001A438A608A6822F040528A60C26A8B68E1
:100930001A438A608A6822F002028A608A68037E0B
:1009400090F8204042EA43028A604A6884B142F447
:1009500000624A604A684EF2000322F460424A6034
:10096000426ACFF6FF734C6803EB4232224301E048
:1009700022F400624A60CA6A40F2000C22F470025B
:10098000CA62C3694269CFF6F07CCC6A0CEB0353B0
:100990002343CB628B6823F400738B6090F8303074
:1009A0008C6844EA43238B608B6823F480638B60FC
:1009B0008B6843EA82228A6000214164026C012331
:1009C00063F301020264002280F83C20BDE810407D
:1009D0000846704780B586B042F200210068C4F234
:1009E0000101002288420592CDE903220292019280
:1009F00002D006B080BD00BF43F630000092C4F2C2
:100A00000200436943F480634361436903F48063F4
:100A10000093009B0092036843F02003036000688A
:100A200000F0200000900098202001900320CDE9E4
:100A3000020201F5724001A900F008FA06B080BD7B
:100A400070B5044600680D468268520544BF806850
:100A50005FEAC05038D400F0CFFA21680A689207E4
:100A600049D40646681C3CD0DDB90868800721D50A
:100A7000086880073FD4086880071BD5086880078E
:100A800039D40868800715D50868800733D408680A
:100A900080070FD508688007E7D52CE00868800735
:100AA00029D400F0A9FA801B2168A842F6D9086869
:100AB0008007F3D4206C40F004002064002084F808
:100AC0003C00032070BD00BF206C40F0200020647B
:100AD000002084F83C00012070BD00BF086880073A
:100AE00009D40868800706D4086880075CBF0868D6
:100AF0005FEA8070F2D56FF012000860206C40F45D
:100B000000702064886810F0405F01D0002070BD44
:100B1000207E0028FAD1C86A10F4700F02D08868CD
:100B20004005F3D4206C20F480702064206CC00455
:100B3000ECD4206C40F001002064002070BD000067
:100B400010B581B00021009190F83C10012903D12B
:100B5000022001B010BD00BF0468012180F83C10E4
:100B6000214651F8083FDB0729D10B684DF6836217
:100B700043F001030B6040F20803C2F200031B685C
:100B8000C4F21B32A3FB02239A0C02EB4202009236
:100B9000009AA2B1009A013A0092009A7AB1009AA2
:100BA000013A0092009A52B1009A013A0092009ADA
:100BB0002AB1009A013A0092009A002AEAD10A6802
:100BC000036CD2070CD143F01001016400F1440121
:100BD00001200A6810430860002001B010BD00BF6A
:100BE00040F2017223EA020202F580720264626836
:100BF000520504D5026C012363F30D320264026CCA
:100C00004FF0000E0023D20444BF426C22F00603D2
:100C100042F2043C436480F83CE06FF02200C4F2EE
:100C2000010C2060DCF80000C0060DD0ACF541706E
:100C300084422BD14FF60450CFF6FF705CF80000D1
:100C400010F0405F22D125E042F20000C4F2010022
:100C5000844217D042F20020C4F2010084420DD039
:100C600042F20010C4F2010084420FD1DCF800000F
:100C7000C00607D0ACF58270844207D1DCF80000D2
:100C8000C00603D4086810F0405F03D0002001B014
:100C900010BD00BF4FF080409BE700004379012B5F
:100CA0004FF0020320D010B50371036802F0100E5C
:100CB000D3F800C0D1E9001440F6FE7202FA0EF239
:100CC00021432CEA020201FA0EF111431960C021FE
:100CD0001A6801FA0EF122EA0101196001210023CC
:100CE00001714371BDE8104018467047002804BFE9
:100CF00001207047017941B910B5002141710446C6
:100D000000F00CF82046BDE81040022101710021DE
:100D100001220161027108467047000080B586B06B
:100D200047F200410068C4F20001002288420592A7
:100D3000CDE903220292019202D006B080BD00BF2D
:100D400043F630000092C4F20200036943F00053FE
:100D50000361036903F000530093009B0092036852
:100D600043F001030360006800F001000090009868
:100D7000102001900320CDE9020201F5C63001A93F
:100D800000F064F806B080BD81B04FF0000CCDF8E3
:100D900000C00068002900900098104414BF14306F
:100DA00008300090009900200B6001B070470000EF
:100DB0004279012A4FF0020224D010B50271026874
:100DC00001F0100C4FF0010E14680EFA0CF32343DF
:100DD0001360136841B103F470113C2303FA0CF360
:100DE000994209D1022104E003F03C013C2903D1DE
:100DF00001215368194351600121002201714271A0
:100E0000BDE8104010467047B0B5044600F0F4F855
:100E1000054640F20000C2F200000078611C18BFD5
:100E2000044400BF00F0E8F8401BA042FAD3B0BD74
:100E30007047000043F61441C4F201010A680242FF
:100E400014BF08607047FFF7F3BF00002DE9F04FB3
:100E500083B000F1200200F13E4741F60005009208
:100E600007F1FF77C4F2020507224FEAB726A8422E
:100E700008BF062200254FF000084FF00009062E9B
:100E800038BF4FEAB72201920AE000BF09F1010919
:100E900008F10208B9F1100F05F1040500F0A28075
:100EA0000F68012202FA09FE17EA0E0AEED0D1F805
:100EB00004C003220CF003077E1E02FA08F4012E80
:100EC0006FEA040B12D88468CE6804EA0B0406FAB1
:100ED00008F634438460446824EA0E06CCF3001418
:100EE00004FA09F42643466004E000BF032F01D151
:100EF00003271EE0C6688C6806EA0B0604FA08F4AD
:100F00002643022FC66014D16FF00302009E02EA4E
:100F1000590756F807C005F01C040F220B69A240C0
:100F20002CEA0202A3401A43F251D1F804C00CF09B
:100F30000307026807FA08F302EA0B021A431CF4DB
:100F4000403F0260A2D0002243F644030292C4F262
:100F500002031A6843F6004442F480421A601A6899
:100F6000C4F2010402F480420292029A29F00302C0
:100F70004FF6084C2244CFF6FF7C52F80C3005F0B7
:100F80000C070F26BE40B343019E06FA07F73B430A
:100F900042F80C30A2684B6842EA0A0743F60C4C50
:100FA000DE0258BF22EA0A07A760C4F2010CDCF88F
:100FB00000209E0242EA0A0758BF22EA0A07CCF83C
:100FC000007062689E0342EA0A0758BF22EA0A07D5
:100FD00067602268DB0342EA0A0758BF22EA0A0771
:100FE000276053E703B0BDE8F08F0000002A08BF78
:100FF000090481617047000040F21C60C2F20000E9
:101000000068704740F2000040F21C61C2F200002C
:10101000C2F2000100780A681044086070470000BE
:1010200080B543F60040C4F20200016841F400714B
:101030000160016841F480610160016841F48071E0
:101040000160032000F086F8002000F005F800F0B1
:1010500027F8002080BD000070B540F20006C2F203
:10106000000640F208013278C2F200014FF47A73B0
:101070000968B3FBF2F20446B1FBF2F1084600F056
:1010800001FF0F2C4FF0010508D838B94FF0FF30A1
:1010900021460022002500F031F87460284670BD1A
:1010A00082B0002043F640010190C4F202014A6878
:1010B00042F480424A604A6802F480420192019AF6
:1010C0000090086840F080500860086800F0805088
:1010D0000090009802B07047002848BF704700F0A9
:1010E0001F01012202FA01F11C2202EAD0004EF295
:1010F0000012CEF2000281507047000010B54EF68B
:101100000C5CCEF2000CDCF80030C3F3022E8EF043
:101110000704042C28BF0424BEF103034FF0FF3E54
:101120000EFA04F438BF0023A14399400EFA03F3EA
:101130009A43114300F00F0200F160430901043AA1
:1011400003F564436244002848BF02F10C031970A0
:1011500010BD00004EF60C51CEF200010A684FF6A9
:10116000FF031A4060F30A2242F0806040F0FD70F5
:101170000860704701220168C0F80025002280F84D
:10118000F424886940F000608861486D40F0805028
:1011900040F0030200204A6570470000002804BFA9
:1011A000012070472DE9F04F8BB08246056890F81A
:1011B000BD0428B900208AF8BC04504600F0D0F8DD
:1011C00003208AF8BD04E86BC0055CBF0020CAF8A4
:1011D0001000DAF8000001F0A7FDDAF800000AF1CB
:1011E00020090A90DAE90B64DAF834000AF1040EF7
:1011F00099E880039EE82E58CDE9084004A880E8CD
:1012000080030A988DE82058079601F04BFA0028D1
:1012100040F08880DAF800000021002501F08CFD04
:10122000DAF8041000295CD00AF13C004FF0010C00
:101230000022002302EBC20200EB820700F82230FA
:10124000DAB201333A81DAB2914287F801C03D71D6
:10125000C7E90355BD61EDD80AF51F7000220025CE
:10126000002300BF05EBC50743F00105ECB200EB1E
:101270008706A142727000F827303271C6E9032256
:10128000B2612ED904EBC40700F8275043F00205E1
:10129000ECB200EB8706A14272703271C6E90322FC
:1012A000B2611ED904EBC40700F8275043F00305D0
:1012B000ECB200EB8706A14272703271C6E90322DC
:1012C000B2610ED904EBC407043300F82750DDB235
:1012D00000EB8706A94272703271C6E90322B2613F
:1012E000C0D8DAF80800DAF800200A90DAE90C40F1
:1012F000DAE905650AF11C0EDAE903379EE80058C1
:10130000DAE90A89CDE9084002A880E820581046A9
:101310000A9ACDE90076CDF81880CDF81C9001F03E
:10132000C1FA38B102208AF8BD0401200BB0BDE833
:10133000F08F00BF00208AF8380001208AF8BD0431
:10134000DAF82400012802D15046FFF713FFDAF83B
:10135000000001F097FA00200BB0BDE8F08F00000C
:10136000F0B59DB0044600201C90CDE91A00CDE9EF
:10137000180001A804305821FFF7C9F82068B0F11F
:10138000A04F01D01DB0F0BD4FF48070019001A8B6
:1013900000F03EF8002818BFFFF7ACF9002743F62D
:1013A00030060097C4F202063068002440F00100C5
:1013B00030603068C4F2020400F001000090009830
:1013C0004FF4E85018900220CDE9190703201B9034
:1013D0000A2018AD1C9020462946FFF737FD4FF430
:1013E0000070CDE91807204629461A97FFF72EFD11
:1013F000706840F0800070600097706940F4804031
:101400007061706900F48040009000981DB0F0BDDC
:101410002DE9F04381B00446006843F68C06C1070D
:10142000C4F2020604D14FF0000981070CD415E084
:101430003168A26B21F0C06111433160B2FA82F1D0
:101440004FEA5119810709D53168E26B21F0C0518B
:1014500011433160002A08BF4FF00109410705D44C
:101460004FF00008010712D420E000BF3168226B62
:1014700021F4401111433160B2FA82F14FEA511860
:10148000B2F5801F08BF4FF0010901070ED5316882
:10149000626B21F440011143B2F5800F316008BF47
:1014A0004FF00109002A08BF4FF0010881065AD504
:1014B0000020009056F84C0C47F2000740F0805096
:1014C00046F84C0C56F84C0CC4F2000700F0805063
:1014D00000900098386840F480703860FFF78CFD09
:1014E000054600BF3868C00506D4FFF785FD401BE0
:1014F0000228F7D990E100BF56F81C0C10F4407098
:1015000017D0216C01F44071884212D056F81C0C9F
:1015100040F64061C4F24721012220F440700A6085
:1015200000220A6046F81C0C56F81C0CC00740F05C
:101530007B812068216C56F8842C4FF6FF4701F41C
:10154000407322F4F812C0F6FF770F40B3F5407FE6
:1015500008BF3A4346F8842C56F81C2C6FF31F3111
:10156000114346F81C1CC10610D4010619D44106CB
:101570001FD4C10525D4810530D4410536D4B9F135
:10158000010F18BFB0F5006F3CD062E094F858002E
:1015900040F64061C4F24721C1F8A003206801066B
:1015A000E5D5B168E26C21F440011143B160410618
:1015B000DFD5B168A26C21F080611143B160C10533
:1015C000D9D5B168626D21F000611143B160B2F10B
:1015D000006F08BF4FF001088105CED5B168626C7D
:1015E00021F080511143B1604105C8D5B268216D29
:1015F00022F000520A43B0F5006FB26018BFB1F19B
:10160000005F23D140F26809C4F247290020C9F8DD
:101610000000FFF7F1FC054656F88C0C000105D5DB
:10162000FFF7EAFC401B0228F6D9F5E02068C10765
:1016300002D0A16B00296FD0810702D5E16B002990
:101640006AD0410700F17D807FE000BFB9F1010F52
:10165000D8D0B8F1000F4FF0000000F0DE8068270E
:10166000C4F24727B860FFF7C7FC054656F88C0C54
:10167000800005D5FFF7C0FC401B0228F6D9CBE05F
:101680002068410701D5216B19B101071AD5616B9B
:10169000C1B956F8041CD4E9062301F44031656A47
:1016A000114341EA831141EA0561D4F82CC046F8A0
:1016B000041C31686FF0FF0221F4F85102EB0C2298
:1016C00011433160C00516D5606DB0F1006F12D1C5
:1016D00056F8040C226AD4E9061300F07060D203B5
:1016E0004FF6FF75AA430843A2F5803240EA831003
:1016F000104346F8040C0120B860FFF77DFC044657
:1017000056F88C0C800000F18B80FFF775FC001BF5
:101710000328F5D380E000BF56F8081C56F8082CC3
:10172000D4E9013501F4403102F070621943676970
:10173000114341EA851141EA077146F8081C410747
:1017400003D5216BB1F5801F05D001071FD5616B53
:10175000B1F5800F1BD156F8081C56F8082CD4E9B7
:10176000013701F4403102F0E04219432569114389
:1017700041EA871141EA0561D4F828C046F8081CFF
:101780003168ACF1010221F01F01114331604105C4
:101790001FD5216DB1F1005F1BD1271D56F808CC74
:1017A00056F8082CA8CFFF034FF6FF7127EA010176
:1017B0004FF0C06702F0E04207EA4C2707F10077DC
:1017C0001A433A43A1F5803142EA8512114346F8A3
:1017D000081C000510D5271D8FCF40EA8110D103CA
:1017E0004FF6FF729143A1F5803140EA0360084350
:1017F00040EA077046F8080C0120C9F80000FFF71E
:10180000FBFB054656F88C0C00013FF522AFFFF7B5
:10181000F3FB401B0228F5D9032001B0BDE8F0839B
:10182000002001B0BDE8F083FFF7E6FB054641F27A
:10183000883700BF56F81C0C80073FF57AAEFFF7DB
:10184000DBFB401BB8424FF00300F3D9E5E7000093
:10185000002804BF012070472DE9F04143F6080835
:10186000C4F202080446D8F8F8030D4600F00F0051
:10187000884207D288F8F853D8F8F80300F00F0030
:10188000A84277D12068810717D5410705D5D8F838
:10189000001041F4E051C8F80010010705D5D8F850
:1018A000001041F46041C8F80010D8F80010A26898
:1018B00021F0F0011143C8F80010C00740D1D8F85A
:1018C000F80300F00F00A84207D988F8F853D8F8B9
:1018D000F80300F00F00A8424CD12068410707D55B
:1018E000D8F80010E26821F4E0511143C8F8001064
:1018F000000708D5D8F80000216920F4604040EACC
:10190000C100C8F8000000F07DF8D8F8001042F6D9
:101910007862C1F30311C0F60002515C40F2080284
:1019200020FA01F140F20400C2F200000068C2F2A5
:1019300000021160FFF790FB0020BDE8F08100BFBE
:101940006068811E022907D258F8081C89015CBF13
:101950000120BDE8F08111E0012807D158F8081CEA
:1019600089035CBF0120BDE8F08107E058F8081C3E
:10197000890703D40120BDE8F08100BFD8F800102A
:1019800021F003010843C8F80000FFF735FB0646C5
:1019900041F28837D8F80000616800F00C00B0EB25
:1019A000810F8CD0FFF728FB801BB842F2D90320AF
:1019B000BDE8F08140F2080043F60801C2F20000E1
:1019C000C4F202010068096842F68862C1F382210C
:1019D000C0F60002515CC8407047000040F20800A9
:1019E00043F60801C2F20000C4F20201006809686F
:1019F00042F68862C1F34231C0F60002515CC84031
:101A00007047000010B543F60404C4F20204606895
:101A1000C0F3810142F20040C0F2F400DFE801F0BF
:101A20004202081841F20020C0F27A0010BD00BF47
:101A3000216801F03F02216823684902C3F388113D
:101A400016D4A1FB00010023FEF746FC17E000BFFF
:101A5000216801F03F02216823684902C3F388111D
:101A600014D4A1FB00010023FEF736FC15E000BFF3
:101A700041F20020C0F27A004843B0FBF2F0216846
:101A80000222C1F3014102EB410109E041F20020D1
:101A9000C0F27A004843B0FBF2F02168C1F3027152
:101AA000B0FBF1F010BD0000002804BF012070471A
:101AB0002DE9F04182B00446007843F60006C007E5
:101AC000C4F202060CD0B06800F00C00042840F00C
:101AD00089803068800303D56068002800F0508159
:101AE0002078800723D5B06810F00C0F11D0B068B3
:101AF00000F00C00082802D17068400209D5B068D7
:101B000000F00C000C2840F09F807068400200F14B
:101B10009B803068800703D5E068012840F0308161
:101B20003068216920F0F80040EAC1003060207878
:101B3000000713D4207840072AD4A569002D00F0AF
:101B40001A81B06800F00C00082840F0AB80012D2D
:101B500040F0E880012002B0BDE8F0816069002813
:101B600040F20000C4F2472000F088800121C0F854
:101B7000801EFFF741FA0546706F8007DAD4FFF741
:101B80003BFA401B0228F7D9032002B0BDE8F081E0
:101B9000306C5FEAC0080AD400200190306C40F03D
:101BA00080503064306C00F080500190019847F212
:101BB0000007C4F200073868C00537D4386840F41D
:101BC00080703860FFF718FA054600BF3868C00516
:101BD0002CD4FFF711FA401B0228F7D9032002B0DA
:101BE000BDE8F081B06800F00C00082803D17068EF
:101BF00040023FF56EAFB06800F00C000C2803D136
:101C0000706840023FF565AF61683068B1F5803FAC
:101C100007D0B1F5A02F40F0CB8040F48020306099
:101C2000306840F480303060CBE000BFA168306F96
:101C3000012905D0052957D140F004003067306FE5
:101C400040F00100306759E0E068002800F09C8017
:101C50000020C4F2472001210160FFF7CDF90546BD
:101C6000306880073FF55CAFFFF7C6F9401B0228DC
:101C70004FF00300F4D902B0BDE8F0810021C0F8B4
:101C8000801EFFF7B9F90546706F80077FF552AFE8
:101C9000FFF7B2F9401B0228F6D9032002B0BDE8D5
:101CA000F08100BF0027C4F2472700203866FFF705
:101CB000A3F9022D05460BD13068800140F19280D6
:101CC000FFF79AF9401B02284FF00300F4D9D2E73E
:101CD000306880014FD5FFF78FF9401B02284FF085
:101CE0000300F5D9C7E700BF20F001003067306F6F
:101CF000002920F00400306700F09880FFF77CF99D
:101D0000054641F2883700BF306F800700F1A080A0
:101D1000FFF772F9401BB842F6D9032002B0BDE8C4
:101D2000F08100BF7068E16900F480028A4227D127
:101D3000216A00F03F028A4222D147F6C071626AEE
:101D40000140B1EB821F1BD1A16A4FF6FF73C9039B
:101D5000994300F44032A1F580318A4210D1E16A02
:101D600000F07062B2EB016F0AD1216B00F0E0402D
:101D7000B0EB017F04D1002002B0BDE8F08100BFCC
:101D8000012002B0BDE8F0810020C4F2472000210C
:101D90000160FFF731F90546306880077FF5C7AE6F
:101DA000FFF72AF9401B02284FF00300F4D962E73D
:101DB00020F4803030603068002920F480203060CA
:101DC00050D0FFF719F90546306880033FF588AE1B
:101DD000FFF712F9401B6428F6D9032002B0BDE8D2
:101DE000F08100BF04F11C052FCD246B084340EAAD
:101DF0008210D9034FF6FF729143A1F5803140EA7A
:101E00000560084340EA0470706001203866FFF7FF
:101E1000F3F8044630688001ADD4FFF7EDF8001BFD
:101E200002284FF00300F5D925E700BFFFF7E4F8DB
:101E3000054641F2883700BF306F800708D5FFF7AD
:101E4000DBF8401BB8424FF00300F5D913E700BFA1
:101E5000B8F1000F3FF571AE306C20F08050306467
:101E60006BE600BFFFF7C8F8054600BF3068800387
:101E70007FF536AEFFF7C0F8401B64284FF0030033
:101E8000F4D9F8E6411E0020B0EB116F1CBF012011
:101E900070474EF21002CEF2000251604EF623510E
:101EA000CEF20001F0230B700721906011607047A3
:101EB000002804BF0120704710B5044690F83D008B
:101EC00028B9002084F83C00204600F021F82420A6
:101ED00084F83D002068C16821F40051C1602046AB
:101EE00000F06CFB2068016921F4904101614169B7
:101EF00021F02A014161C16841F40051C160002014
:101F00002021206484F83D1084F83E1010BD0000AC
:101F100080B586B044F600010068C4F200010022DA
:101F200088420592CDE903220292019202D006B0C6
:101F300080BD00BF43F630000092C4F20200036986
:101F400043F480230361036903F480230093009B1F
:101F50000092036843F008030360006800F0080083
:101F6000009000984FF4407001900220CDE90202E9
:101F7000032004900720059001F5E23001A9FEF747
:101F800065FF06B080BD00002DE9F04381B0044636
:101F900090F83D0020280DD10F4600294FF0010098
:101FA00018BF002A02D101B0BDE8F08394F83C00CC
:101FB000012803D1022001B0BDE8F083012084F89C
:101FC0003C000020206421201D4684F83D00164678
:101FD000FFF712F8A684E684A1680646B1F5805F93
:101FE00003D12069002800F00D81B84600270020A9
:101FF00084F83C00E18C2068002900F08F8005F116
:1020000001090CE0B8F1000F28D018F8011B41605D
:10201000E18C0139E184E18C002900F07F800168C6
:102020000906EFD4B9F1000F0AD0FDB1FEF7E4FFC5
:10203000801BA8421AD8206801680906F6D5E1E796
:1020400001680906DED4016809065CBF01685FEA21
:102050000161D7D401680906F2D5D3E737F8021B2E
:102060004FF000086FF35F21D1E700BF206850E810
:10207000030F216820F4D07041E80302BAB320684E
:1020800050E8030F216820F4D07041E8030272B3D6
:10209000206850E8030F216820F4D07041E8030263
:1020A0002AB3206850E8030F216820F4D07041E87B
:1020B0000302002ADAD11AE0206850E8050F2168EF
:1020C00020F0010041E80502DAB1206850E8050F70
:1020D000216820F0010041E8050292B1206850E833
:1020E000050F216820F0010041E805024AB120688F
:1020F00050E8050F216820F0010041E80502002AA0
:10210000DAD1202084F83D0084F83E00002084F8D5
:102110003C00032001B0BDE8F08300BF0168490620
:102120000FD4F5B1691C17D10168490609D40168BB
:1021300049065CBF01685FEA416102D40168490653
:10214000F2D5202084F83D00002001B0BDE8F083E6
:10215000206800684006F4D4FEF74EFF801BA842BA
:10216000F6D9206850E8030F216820F4D07041E8C8
:102170000302E2B3206850E8030F216820F4D07016
:1021800041E803029AB3206850E8030F216820F465
:10219000D07041E8030252B3206850E8030F216871
:1021A00020F4D07041E80302002ADAD11FE000BF1A
:1021B000206850E8050F216820F0010041E8050281
:1021C000002A9ED0206850E8050F216820F0010009
:1021D00041E80502002A94D0206850E8050F2168E4
:1021E00020F0010041E80502002A3FF48AAF206890
:1021F00050E8050F216820F0010041E80502002A9F
:10220000D6D17EE74FF00008F1E60000FEE70000BF
:10221000B0B584B040F2700042F2002101230024E6
:10222000C2F20000C4F20101C0F60073012503945C
:102230004FF48032047680F82040C0E90A34C5614A
:1022400080F8304080E81600C0E903444561FEF79D
:1022500013FB28B1EFF3108072B600BFFEE700BF9A
:102260000F20CDE9000540F27000C2F2000069467F
:102270000294FEF745FA28B1EFF3108072B600BF62
:10228000FEE700BF04B0B0BD80B582B00020CDE94C
:10229000000040F2B80047F20041C2F20000C4F270
:1022A00000010160FEF722FD20B1EFF3108072B64D
:1022B000FEE700BF40F2B800C2F20000694600220B
:1022C000FEF7ECFC20B1EFF3108072B6FEE700BF22
:1022D00002B080BD2DE9F04F87B0002443F63000F6
:1022E0000694CDE90444CDE902440194C4F202000D
:1022F000016840F6000841F0040101600168C4F281
:10230000020801F004010191019901940168A8F506
:10231000806741F0200101600168002201F0200186
:10232000019101990194016844F2810A41F0800110
:102330000160016801F08001019101990194016837
:1023400041F001010160016801F001010191019971
:102350000194016841F002010160016801F002018D
:10236000019101990194016841F00801016001683F
:1023700001F00801019101990194016841F04001C7
:102380000160006844F2810100F040000190019872
:102390003846FEF72BFE08F58055284640210022DE
:1023A0004FF0400BFEF722FE40464FF470610022D2
:1023B000FEF71CFE4FF4005002AE02904FF4881955
:1023C00040463146CDE90394FEF740FDCDF808A024
:1023D0004FF0010A38463146CDE903A40594FEF7D3
:1023E00035FD28463146CDE902BACDE90444FEF771
:1023F0002DFD8020CDE90204284631460494FEF7E5
:1024000025FD4FF47060CDE9020A40463146CDE922
:102410000444FEF71BFDF020CDE9020902200490E0
:1024200008F580603146FEF711FD0A2000210022E8
:10243000FEF764FE0A20FEF74FFE1720002100225F
:10244000FEF75CFE1720FEF747FE28200021002241
:10245000FEF754FE2820FEF73FFE07B0BDE8F08FE0
:1024600080B540F2D85044F60001C2F20000C4F238
:10247000000100234FF00C0C4FF4164280E80E00D0
:10248000C0E90333C0E905C3C361FFF711FD0028AC
:1024900008BF80BDEFF3108072B600BFFEE70000FA
:1024A00080B540F2CC00C2F200004FF0A0410622FD
:1024B000C0E90012022100220123C0E90312C0E991
:1024C0000613C0E90822C0E90B32FEF767FE0028B8
:1024D00008BF80BDEFF3108072B600BFFEE70000BA
:1024E000FEE70000FEE700007047000070470000B4
:1024F000FEF788BD70B594B007AC20463421FEF7D6
:1025000006F8002543F640000695CDE90455CDE9CF
:1025100002550195C4F202000168022641F0805183
:102520000160006800F080500190019847F20000BF
:102530000195C4F20000016841F440410160006867
:1025400000F4404001900198012007904FF4A02032
:1025500008904FF480000E9004200F90A820CDE941
:1025600010060720CDE9120620460D96FFF79CFACB
:1025700020B1EFF3108072B6FEE700BF0F20CDE967
:1025800002064FF4A05005904FF48050069002A828
:1025900005210495FFF75CF920B1EFF3108072B6C6
:1025A000FEE700BF14B070BD4EF68850CEF20000BA
:1025B000016841F47001016070470000B0B5044645
:1025C000006804F108030ECB0569194325F4405552
:1025D0002A4302616269E3691143C268194349F2FF
:1025E0000C639A431143C1604169A26921F44071AF
:1025F00041F20043114340F48062C4F201039A4265
:10260000416103D1FFF7EAF902E000BFFFF7D2F919
:10261000E1694FF69C7563681922C0F6FF75B1F544
:10262000004FA0FB02011FD15A00DB0FFDF754FE43
:1026300048F21F51C5F2EB11A0FB01235A0905F125
:10264000805302FB0300322303EBC000A0FB010117
:102650004FF4F87000EA111000EB0210C1F34211C0
:10266000084421688860B0BD9A009B0FFDF734FED6
:1026700048F21F51C5F2EB11A0FB01235A0902FBDE
:102680000500322303EB0010A0FB0101F02000EA5B
:10269000511000EB0210C1F3431108442168886017
:1026A000B0BD000082B00499DDF808C0012940F6F1
:1026B0004051C0F203016FD1826B4FF6BF7322F419
:1026C00080328263C268CFF6BD731A40C260C268AE
:1026D0000B9B22F44012012BC26003D1C26842F46A
:1026E0008012C26000220092009A01320092009A89
:1026F0008A4200F2A9800269002A1ED4009A01329F
:102700000092009A8A4200F29F800269002A14D443
:10271000009A01320092009A8A4200F29580026982
:10272000002A0AD4009A01320092009A8A4200F2EA
:102730008B800269B2F1FF3FD6DC00220092026971
:1027400042F001020261009A01320092009A8A422C
:102750007AD80269D2071AD0009A01320092009A00
:102760008A4271D80269D20711D0009A01320092D0
:10277000009A8A4268D80269D20708D0009A0132CA
:102780000092009A8A425FD80269D207DBD1002109
:10279000BCF1010F72D169E0C268089B42F04002AF
:1027A000C26000220192019A01320192019A8A428A
:1027B00050D80269002A1BD4019A01320192019A71
:1027C0008A4247D80269002A12D4019A0132019242
:1027D000019A8A423ED80269002A09D4019A01323C
:1027E0000192019A8A4235D80269B2F1FF3FDADCE0
:1027F00000220192026942F001020261019A013253
:102800000192019A8A4225D80269D2071AD0019A08
:1028100001320192019A8A421CD80269D20711D072
:10282000019A01320192019A8A4213D80269D207B1
:1028300008D0019A01320192019A8A420AD80269AB
:10284000D207DBD1002106E00321BCF1010F15D135
:102850000CE000BF0321826B002B14BF22F48032F6
:1028600042F480328263BCF1010F07D1826842F0EA
:1028700006028260826842F020028260084602B04E
:10288000704700000146D0F8000E20F00300C1F8A8
:10289000000ED1F8040840F002020020C1F804281C
:1028A000704700002DE9F04F83B0DDF84C800E9F9B
:1028B0000022B8F1000F00F5006BC0F80421C0F849
:1028C0000821C0F80C21C0F81021C0F81421C0F86C
:1028D0001821C0F81C21C0F82021C0F82421C0F81C
:1028E0002821C0F82C21C0F83021C0F83421C0F8CC
:1028F0003821C0F83C2105D0866B46F4001686636B
:1029000012E000BFD0F8046846F00206C0F8046880
:10291000866B26F400168663066846F0400606605D
:10292000066846F0800606600026C0F8006ED0F803
:102930000068012FC0F8006806D1DBF80070002B9A
:1029400018BF47F0010703E0DBF8003043F003074E
:10295000DDF83CE0DDF8309040F64055C0F203056C
:102960000023C0F800780193019B01330193019B80
:10297000AB4249D80369002B1BD4019B013301935F
:10298000019BAB4240D80369002B12D4019B013359
:102990000193019BAB4237D80369002B09D4019BFB
:1029A00001330193019BAB422ED80369B3F1FF3F82
:1029B000DADC002301934FF484630361019B01334C
:1029C0000193019BAB421FD803699B061AD5019B5B
:1029D00001330193019BAB4216D803699B0611D5C5
:1029E000019B01330193019BAB420DD803699B0608
:1029F00008D5019B01330193019BAB4204D80369C5
:102A00009B06DBD4002400E0012400230293029BF8
:102A100001330293029BAB4248D80369002B1BD4BD
:102A2000029B01330293029BAB423FD80369002B08
:102A300012D4029B01330293029BAB4236D8036946
:102A4000002B09D4029B01330293029BAB422DD889
:102A50000369B3F1FF3FDADC002302931023036123
:102A6000029B01330293029BAB421FD80369DB0632
:102A70001DD5029B01330293029BAB4216D803691A
:102A8000DB0614D5029B01330293029BAB420DD8A7
:102A90000369DB060BD5029B01330293029BAB4219
:102AA00004D80369DB06DBD401E000BF01244FF04A
:102AB000000A0029CBF810A0CBF814A0CBF81CA07A
:102AC00000F004810094D0F800394FF0006202EA6F
:102AD00013134FF67F354E1EC0F80039C0F810A909
:102AE000C0F8085976D08B1E032B06F0030905D2D7
:102AF0002024B9F1000F42D16CE000BF26F003079B
:102B000000244FF0904E4FF67F384FF0000C00BF7E
:102B100000EB0C03D3F82059043F0EEAE575C3F827
:102B20002059C3F83049C3F82889D3F840590CF12B
:102B3000800C0EEAE575C3F84059C3F85049C3F854
:102B40004889D3F860590EEAE575C3F86059C3F8AF
:102B50007049C3F86889D3F880590EEAE575C3F85F
:102B60008059C3F89049C3F88889D1D1DDF84C80E9
:102B70000CF120044FF67F35B9F1000F2AD000F593
:102B800010631D594FF0904C0CEAE5751F191D514B
:102B90004FF67F3500244FF67F3EB9F1010F3C61BF
:102BA000C7F808E016D03B6AB9F1020F0CEAE373EC
:102BB0003B623C63C7F828E00CD03B6C4FF090457B
:102BC00005EAE3733B6400234FF67F353B654FF620
:102BD0007F33BB64D0F8003BDDF83CE002EA13131E
:102BE000C0F8003B0023C0F8103BC0F8085BDDF8DC
:102BF0003090009C002E69D00239032906F0030CA6
:102C000004D22023BCF1000F3BD15FE026F0030388
:102C100000244FF090474FF67F3600214518D5F835
:102C2000202B043B07EAE272C5F8202BC5F8304B95
:102C3000C5F8286BD5F8402B01F1800107EAE27254
:102C4000C5F8402BC5F8504BC5F8486BD5F8602B3C
:102C500007EAE272C5F8602BC5F8704BC5F8686BDF
:102C6000D5F8802B07EAE272C5F8802BC5F8904BA7
:102C7000C5F8886BD2D1009C01F12003BCF1000F94
:102C800024D000F53062D6584FF0904707EAE67638
:102C9000D118D65000264FF67F33BCF1010F0E61DC
:102CA0008B6013D00A6ABCF1020F07EAE2720A6273
:102CB0000E638B620AD00A6C4FF0904303EAE27213
:102CC0000A6400220A654FF67F328A64DBF810102E
:102CD000B9F1000F21F48071CBF810106FF0804132
:102CE000C0F818A0416103D1816941F010018161F0
:102CF000816943F60002C8F23C021143BEF1000FA5
:102D0000816103D0816941F008018161B8F1010F4F
:102D100005D1816941F0804141F004018161204683
:102D200003B0BDE8F08F00000146806820F001028A
:102D300000208A6070470000B0B50446C06820F0EB
:102D4000C040E06091B1012926D1E068002540F043
:102D50000050E0600120FEF757F86069C00705F1F8
:102D6000010014D1312D0546F4D310E0E0680025B0
:102D700040F08040E06000BF0120FEF745F8606948
:102D8000C00705F1010002D0312D0546F4D33238D9
:102D9000B0FA80F04009B0BD0120B0BDFEE70000F0
:102DA0009AB0FEF73DF9FFF7A5FBFFF793FAFFF79F
:102DB0002FFAFFF755FBFFF773FBFFF765FA40F2B9
:102DC0007004C2F200042046FDF7BAFE20466421DA
:102DD000FDF736FE2046FDF74BFD42F69065C0F646
:102DE000000501AE82B230462946FDF7EDFA3046C5
:102DF00000F026F840F2B807C2F200073846FDF7A7
:102E000075FF38460021FDF7D3FF38460021002228
:102E1000FF23FDF7B9FF00BF2046FDF791FE2046D6
:102E20006421FDF70DFE2046FDF722FD82B23046FB
:102E30002946FDF7C9FA304600F002F8ECE7000039
:102E400010B50446FDF744FB82B240F2D850C2F2FE
:102E5000000021466423BDE81040FFF795B8F1EE6D
:102E6000100A4FF6FF71C0F2C03120EA010040F0B5
:102E70004070E1EE100A7047000000000000000002
:102E80000102030406070809000000000102030410
:102E90006164635F7265733D25640D0A0000000084
:102EA000C02E0008000000201000000028020008CA
:102EB000D02E000810000020100C0000480200086E
:102EC00001000000100000000024F40000000000D9
:04000005080001C529
:00000001FF
